:020000040800F2
:10000000D83200209D010008711900083510000841
:100010006D190008DD0E0008FB2B00080000000031
:1000200000000000000000000000000005010008C2
:10003000F90E000800000000490100081927000817
:10004000B7010008B7010008B7010008B7010008B0
:10005000B7010008B7010008B7010008B7010008A0
:10006000B7010008B7010008B7010008B701000890
:10007000B7010008B7010008B7010008B701000880
:10008000B7010008B7010008B7010008B701000870
:10009000B7010008B7010008B7010008B701000860
:1000A000B7010008B7010008B7010008B701000850
:1000B000AD270008D527000801280008B70100086F
:1000C000B7010008B7010008B7010008B701000830
:1000D000B7010008412900085D290008B52900087A
:1000E000B7010008B7010008B7010008DFF810D019
:1000F00000F00EFD004800476D630008AFF300807C
:10010000D8320020224B19680868B0E8F00F80F35D
:100110000988BFF36F8F4FF0000080F311884EF015
:100120000D0E70470000000006480068006880F36C
:10013000088862B661B6BFF34F8FBFF36F8F00DFE1
:1001400000BF00BF08ED00E0EFF30980BFF36F8F41
:100150000F4B1A6820E9F00F106008B54FF05000FF
:1001600080F31188BFF34F8FBFF36F8F07F09AFEB4
:100170004FF0000080F31188BDE808401968086856
:10018000B0E8F00F80F30988BFF36F8F704700BFAE
:1001900054010020EFF305807047000006488047B7
:1001A00006480047FEE7FEE7FEE7FEE7FEE7FEE75C
:1001B000FEE7FEE7FEE7FEE74D270008ED0000083A
:1001C000A0F14101192900D82030704740EA01030D
:1001D0009B0703D009E008C9121F08C0042AFAD2FD
:1001E00003E011F8013B00F8013B521EF9D27047C1
:1001F000D2B201E000F8012B491EFBD27047002269
:10020000F6E710B513460A4604461946FFF7F0FF15
:10021000204610BD421E12F8013F002BFBD111F801
:10022000013B02F8013B002BF9D1704730B5054680
:100230002A460B4612F8010B13F8014B08B1A042F5
:10024000F8D01CB1002802D06D1CF1E7284630BD63
:10025000CAB2401E10F8011F8A4202D00029F9D10B
:1002600000207047421C10F8011B0029FBD1801AA6
:10027000704710B5002200E0521C835C8C5CA342E6
:1002800001D1002BF8D1D8B2E1B2401A10BD10B59F
:10029000044600E0401C0378002BFBD100E0401C2A
:1002A000521E04D311F8013B0370002BF7D100213B
:1002B0000170204610BD034611F8012B00F8012BF8
:1002C000002AF9D11846704730B50546002003468C
:1002D00000E05B1C934205D2EC5CC85C201A01D1A3
:1002E000002CF6D130BDF0B480EA0102D40F4200F8
:1002F000B2EB410F02D20246084611464A0042D0F4
:10030000C30DDDB2C1F3C752AD1A202D35DAC1F3EA
:10031000160141F4000204B15242C5F1200602FA6E
:1003200006F12A411044B3EBD05F23D0C4B1012DB4
:10033000A0EBC35009DCF0BC4FF0004202EAC3520C
:10034000DBB200F5000000F0E4BA400000F180707C
:1003500000EBC350A0F1807040EAD170490009E081
:10036000490841EAC071A0EBC35000F50000400805
:1003700000EBC350F0BC00F0C3BA6142012202EBB3
:100380004101001BF6E7F0BC704781F00041AAE78D
:1003900080F00040A7E72DE9FE4F804681EA030088
:1003A000C00F0C46009021F0004123F00045B8EB4F
:1003B0000200A94105D24046214690461C460B4604
:1003C000024623F00040104347D0270DC7F30A0030
:1003D000C3F30A510290401A019040286BDAC3F32C
:1003E000130040F4801B0098924620B10023D2EB0A
:1003F000030A63EB0B0B01985946C0F140025046CB
:1004000000F04DFA06460D4650465946019A00F056
:1004100065FA10EB08006141002487EA115284EA72
:10042000E7731A4340D0009A62B3019A012A4FEA57
:10043000075215DC001B61EB02014FF0004202EA9B
:100440000752CDE90042001C41F5801132462B468F
:1004500000F09CFA03B0BDE8F08F40462146F9E772
:10046000001B61EB0201001C41F5801300185B4189
:100470002018A2F5001747EB030140EAD570B61922
:100480006D4111E06D084FEA360645EAC0754FEA46
:100490000752001B61EB0201001C41F58011490865
:1004A0004FEA30000019514132462B4603B0BDE8F7
:1004B000F04F00F05CBA0098012240000023D0EB1E
:1004C000020263EBE073009821464FEAE074B8EB58
:1004D000000061EB0401E9E783F000435BE781F092
:1004E000004158E72DE9FE4F81EA030404F000447F
:1004F00021F0004100944FF0000B23F0004350EA3C
:1005000001045ED052EA03045BD0C3F30A54C1F382
:100510000A552C44A4F2F3340194A0FB0254C1F315
:10052000130141F48011C3F3130343F4801301FB5F
:10053000024400FB034E840A970A44EA815447EAC6
:100540008357A4FB076802958D0A05FB07854FEAD0
:10055000932C04FB0C542705029D4FEA065847EAEA
:100560001637B5EB08056EEB070C870E920E47EABF
:10057000811742EA8312A7FB0201B6EB0B0164EB81
:1005800000042B0D43EA0C335E1844EB1C50DA4692
:100590005146E7FB0201C5F313044FEA0B3343EA6C
:1005A00014534FEA0432019C43EA0603A4F10C04FD
:1005B0000294009CCDE900B400F0E8F903B0BDE876
:1005C000F08F00200146F9E72DE9F04D81EA0304A0
:1005D00004F0004B21F0004514464FF0000A23F0D0
:1005E000004150EA050220D054EA01021DD0C5F3B3
:1005F0000A570246C5F31303C1F31300C1F30A56A9
:1006000040F4801543F48013A7EB0608101BD64670
:1006100008F2FD3873EB050002D308F1010801E090
:1006200092185B41B8F1000F03DA00200146BDE8E3
:10063000F08D00204FF48011064684460EE0171B13
:1006400073EB050705D3121B63EB050306434CEA66
:10065000010C49084FEA300092185B4150EA01074B
:10066000EDD152EA030012D082EA040083EA0501C8
:10067000084305D0101BAB4106D20122002306E03F
:1006800000224FF0004302E06FF0010253101AEB1A
:1006900006004CEB085110EB0A0041EB0B01BDE8E2
:1006A000F04D00F064B9C10F80EAE0700844CA0759
:1006B0009623002100F02DB90EB5C10F80EAE0703D
:1006C0000844CA07002140F233438DE80E000A4671
:1006D0000B4600F05BF903B000BD0EB540F23341AC
:1006E00002910021CDE900110A460B4600F04EF9B7
:1006F00003B000BD70B5C1F30A5201F000450024FB
:10070000C1F3130140F2FF3341F480119A4201DA40
:10071000002070BD40F233439A42A2F2334203DC20
:10072000524200F0CBF800E090402C43F1D0404220
:1007300070BDC1F30A5210B5C1F3130140F2FF338B
:1007400041F480119A4201DA002010BD40F2334397
:100750009A42A2F2334203DC524200F0AFF810BDDD
:10076000904010BD30B5041E71F1000404DB4FF061
:100770000044404264EB0101141E73F1000405DBE8
:100780001C464FF00043524263EB04038B4208BF08
:10079000824230BD30B5041E71F1000404DB4FF01D
:1007A0000044404264EB0101141E73F1000405DBB8
:1007B0001C464FF00043524263EB0403994208BFCA
:1007C000904230BD01F0004330B421F0004150EAC6
:1007D000010206D00A0DA2F56072C1F31301002ACE
:1007E00002DC30BC00207047440F44EAC104C10061
:1007F000E01830BC00EBC25000F082B8002801DBEA
:10080000C0F10040002901DBC1F100418142704785
:1008100030B50B46014600202022012409E021FAD0
:1008200002F59D4205D303FA02F5491B04FA02F5CD
:100830002844151EA2F10102F1DC30BD2DE9F05F64
:100840000546002092469B4688460646814640243F
:100850001BE0284641464746224600F02FF8534603
:100860005A46C01A914110D311461846224600F04C
:1008700016F82D1A67EB01084F4622460120002189
:1008800000F00DF817EB00094E41201EA4F1010401
:10089000DFDC484631462A464346BDE8F09F202A21
:1008A00004DB203A00FA02F1002070479140C2F1C7
:1008B000200320FA03F3194390407047202A04DBF9
:1008C000203A21FA02F00021704721FA02F3D040C9
:1008D000C2F120029140084319467047202A06DBE6
:1008E000CB17203A41FA02F043EAE07306E041FAFE
:1008F00002F3D040C2F120029140084319467047EC
:100900000029A8BF7047401C490008BF20F0010023
:10091000704710B4B0FA80FC00FA0CF050EA010401
:1009200004BF10BC704749B1CCF1200421FA04F493
:1009300011FA0CF118BF012121430843A3EB0C016C
:10094000CB1D4FEA00614FEA102042BF002010BCCF
:10095000704700EBC35010440029A4BF10BC70477F
:10096000401C490008BF20F0010010BC704710B5C2
:10097000141E73F1000408DA401C41F100019218C2
:100980005B411A4301D120F0010010BD2DE9F04D6B
:1009900092469B4611B1B1FA81F202E0B0FA80F2C0
:1009A00020329046FFF77BFF04460F4640EA0A00DC
:1009B00041EA0B0153465A46084313D0114653EA05
:1009C000010019D0C8F140025046FFF777FF0546F5
:1009D0000E46504659464246FFF761FF084305D090
:1009E000012004E020463946BDE8F08D0020054393
:1009F00046EAE0762C4337430A986305E40AA0EB05
:100A000008000022FD0A44EA47540A3002D50020BB
:100A10000146E9E7010510196941DDE908450019BA
:100A20006941BDE8F04DA2E770B521F000430343F2
:100A30000CD0C1F30A550024D5EB040564EB040384
:100A4000D617AD1AB34102DB0020014670BD201855
:100A500041EB025170BD00002DE9F041054621F047
:100A600000400C46284309D0C4F30A5040F23341F9
:100A7000884205DD28462146BDE8F0812846FBE78F
:100A800040F2FE31884210DC0CDB4FEA043040EAD1
:100A9000155050EA053105D0104804F000410143DB
:100AA0000020E9E700200146E6E7A0F23340464295
:100AB000C6F1400228462146FFF7F1FE0746884668
:100AC000284621463246FFF7F9FE43463A46FFF7ED
:100AD0004EFF3246BDE8F041FFF7E1BE0000F03FB7
:100AE000C1F30A52C1F3130140F2FF3341F4801104
:100AF0009A4202DA00200146704740F233439A429C
:100B0000A2F2334202DC5242FFF7D8BEFFF7C7BE63
:100B1000064C074D06E0E06840F0010394E807004A
:100B200098471034AC42F6D3FFF7E4FA188C00086B
:100B3000388C00082DE9F04D00231A461B1A8A4113
:100B400003DB00200146BDE8F08DC1F30A52C1F37A
:100B5000130141F480154FF0000BD10702D10018AA
:100B60006D41521E0027044640F2FF11384601EB4A
:100B7000620A3E468046024600204FF48011FFF78D
:100B80009DFEC2197141BB1846EB0100B4EB030C8A
:100B900075EB000C04D3E41A65EB000517460E460E
:100BA000241908F101006D4180463428E3DDF9196C
:100BB00046EB0600091BA84103D24FF0FF32134653
:100BC00001E0002213461BEB070046EB0A51BDE88B
:100BD000F04DFFF7CCBE70B58C1810F8015B15F026
:100BE000070301D110F8013B2A1106D110F8012B9F
:100BF00003E010F8016B01F8016B5B1EF9D12B07C4
:100C000005D40023521E0DD401F8013BFAE710F879
:100C1000013BCB1A921C03E013F8015B01F8015B66
:100C2000521EF9D5A142D8D3002070BD2DE9F0475E
:100C3000074689469046DDF820C0002100220024A6
:100C400000260025002004460246014645E0002615
:100C500001E0491C761C614502D2585C2028F8D07E
:100C6000614500D13BE0ACEB0100022807D3585CA2
:100C70000D2804D1481C185C0A2800D12CE0585CCF
:100C80000A2800D128E01EB16FF02B00BDE8F087E4
:100C9000585C3D2806D1601C0446022802D96FF03A
:100CA0002B00F3E7585C7F2806DC585CDFF8E4A0F3
:100CB0001AF800007F2802D16FF02B00E6E7585C9D
:100CC000DFF8D0A01AF80000402803DA14B16FF062
:100CD0002B00DBE7521C00BF491C6145B7D300BFA6
:100CE0001AB90020C8F80000D0E7D00800EB400097
:100CF0004FEA400A02F0070000EB40004000C01D30
:100D00000AEBD002121B0FB1914504D2C8F80020A3
:100D10006FF02900BAE703240020064602463D464C
:100D200031E018780D2805D018780A2802D01878F4
:100D3000202800D125E01878DFF858A01AF8000024
:100D4000402801D1012000E00020241A1878DFF8A3
:100D500044A01AF8000066F39F100646501C024695
:100D600004280DD1002214B1300C05F8010B012C20
:100D700002D9300A05F8010B022C01D905F8016BE4
:100D800000BF491E5B1C0029CBD1E81BC8F800003E
:100D900000207BE71A8A00082DE9F04F07468946B4
:100DA000099C00250026AC46A846AA4600211CB98D
:100DB00000201060BDE8F08F0320B4FBF0F04FF08E
:100DC000030BB4FBFBFE0BFB1E4BBBF1000F02D071
:100DD0004FF0010B01E04FF0000B00EB0B06B6F1FA
:100DE000804F05D34FF0FF3010606FF02900E1E72E
:100DF000B600701C814500D327B9701C10606FF0DD
:100E00002900D7E70320B4FBF0F000EB40060025F3
:100E1000394629E013F801CB13F8018B13F801AB25
:100E20002D484FEA9C0B10F80B0001F8010B4FEA1C
:100E30000C1000EB281000F03F00DFF89CB01BF80E
:100E4000000001F8010B4FEA880000EBAA1000F047
:100E50003F001BF8000001F8010B0AF03F001BF8EF
:100E6000000001F8010BED1CB542D3D3A5422DD2F1
:100E700013F801CB681CA04202D213F8010B00E06A
:100E8000002080461448CCF3850B10F80B0001F8C5
:100E9000010B4FEA0C1000EB281000F03F00DFF8C8
:100EA00038B01BF8000001F8010B681CA04207D203
:100EB0003F2000EA88001BF8000001F8010B02E067
:100EC0003D2001F8010B3D2001F8010BC81B10600B
:100ED0000020087000BF6DE7DA89000800BFFEE758
:100EE00021B1026842F00102026004E002684FF69C
:100EF000FE731A400260704770472DE9F0410246C8
:100F000000250026002000230024002791F803C0BC
:100F10000CF00F0591F803C00CF0100CBCF1000FA1
:100F200003D091F802C04CEA050591F800C0BCF16D
:100F3000000F31D0146800202BE04FF0010C0CFAA8
:100F400000F3B1F800C00CEA03069E4220D18300F2
:100F50004FF00F0C0CFA03F7BC4305FA03FC4CEA04
:100F6000040491F803C0BCF1280F06D14FF0010C26
:100F70000CFA00FCC2F814C00AE091F803C0BCF1FE
:100F8000480F05D14FF0010C0CFA00FCC2F810C05C
:100F9000401C0828D1D31460B1F800C0BCF1FF0F89
:100FA00034DD546800202EE000F1080C4FF00108F9
:100FB00008FA0CF3B1F800C00CEA03069E4221D1F6
:100FC00083004FF00F0C0CFA03F7BC4305FA03FC47
:100FD0004CEA040491F803C0BCF1280F05D100F1DC
:100FE000080C08FA0CF8C2F8148091F803C0BCF1A0
:100FF000480F07D100F1080C4FF0010808FA0CF86F
:10100000C2F81080401C0828CED35460BDE8F0819F
:101010000246002093680B400BB1012000E0002045
:10102000704741617047016170470AB1016100E09A
:101030004161704700BFFEE710B50446207B0128E0
:1010400002D1206804F026FF002020606060A060CC
:10105000207310BD0246002301230DE002F07F0043
:101060000870D2092AB1087840F080000870491C45
:1010700001E0184670475B1C042BEFDD4FF0FF309A
:10108000F8E770B504460E460025206898B901209F
:101090002073304605F0CEFA20602068E0B10020D1
:1010A0006060A66003E00020216848556D1CA068C0
:1010B000A842F8D810E00220207303E00020216845
:1010C00048556D1CA068A842F8D800206060A06850
:1010D000B04201D20020206070BD00002DE9FF4F1A
:1010E00083B082468B469146159C002500200290D5
:1010F0000F2701904846FFF7B5F80FFA80F8B9F1CD
:10110000000F03D1012007B0BDE8F08F08F1020005
:10111000384487B2109808B145F00205129878B1AA
:1011200045F004051298FFF79DF8C0B2029013989D
:10113000FFF798F801460298001D0844384487B22A
:10114000119820B1012804D0022808D104E000BF82
:1011500007E045F00C0504E045F0140501E002202D
:10116000D1E700BF149808B145F02405BAF1000F8B
:1011700002D0BBF1000F01D10320C4E745F0C00548
:101180005046FFF76FF806465846FFF76BF83044B5
:10119000001D384487B239462046FFF772FF2068A9
:1011A00008B90420AFE739462068FFF728F8102176
:1011B0006268501C606020688154D4E90023D11813
:1011C000781FFFF747FF00B201900198002804DA6A
:1011D0002046FFF731FF052095E761680198084434
:1011E000606000216268501C6060206881540421A6
:1011F0006268501C6060206881544D216268501CF8
:1012000060602068815451216268501C60602068D1
:10121000815454216268501C606020688154626867
:10122000501C60602068815404216268501C60601A
:10123000206881546168481C6060206845540698A5
:10124000010A6268501C6060206881540698C1B22F
:101250006268501C606020688154C8F3072162688E
:10126000501C6060206881546268501C6060206877
:1012700000F80280D4E90012881842464946FFF778
:1012800006F860684044606005F00400B8B30026CA
:10129000139808B938A013901298FEF7E3FF86B2AE
:1012A000310A6268501C6060206881546268501C7A
:1012B000606020688654D4E900128818324612997A
:1012C000FEF7E5FF6068304460601398FEF7CAFFE0
:1012D00086B2310A6268501C60602068815462687E
:1012E000501C606020688654D4E900128818324689
:1012F0001399FEF7CCFF60683044606000BF05F0D2
:101300008000C8B15046FEF7ADFF86B2310A626870
:10131000501C6060206881546268501C60602068C6
:101320008654D4E90012881832465146FEF7AFFFC2
:1013300060683044606000BF05F04000C8B15846A6
:10134000FEF790FF86B2310A6268501C6060206828
:1013500081546268501C606020688654D4E9001291
:10136000881832465946FEF792FF60683044606044
:1013700000BF0020C7E60000000000002DE9FF4F7D
:1013800083B0834617469946139C0025002600200B
:10139000029001908046BBF1000F03D1012007B0FD
:1013A000BDE8F08F00260AE00498805D232803D072
:1013B0000498805D2B2801D10220F0E7761C049868
:1013C000805D0028F0D148F03008119808B148F04D
:1013D000010806EB0900851C109820B1012804D0F3
:1013E00002280AD105E000BF09E048F00208AD1C60
:1013F00005E048F00408AD1C01E00320CFE700BF82
:101400008FB33878022821D14FF0000A00BF504630
:101410000AF1010A385C7D28F9D1AAF1030A0AF120
:10142000070002900298A9EB000AE81CA0EB0A0151
:101430002046FFF726FE206808B90420AFE7EA1C23
:10144000A2EB0A012068FEF7DAFE19E0691D2046CA
:10145000FFF717FE206808B90420A0E7691D20687F
:10146000FEF7CDFE0CE0FFE7691D2046FFF709FE01
:10147000206808B9042092E7691D2068FEF7BFFEC6
:101480006168481C6060206800F80180D4E90002AF
:1014900081182846FFF7DEFD01900198002804DA44
:1014A0002046FFF7C9FD052079E7616801980844E7
:1014B0006060C6F307216268501C60602068815438
:1014C0006268501C606020688654D4E90012881855
:1014D00032460499FEF7DBFE606830446060109885
:1014E00060B14FEA1B216268501C60602068815423
:1014F0006268501C6060206800F802B0C7B138789C
:1015000002280BD1D4E9001288183946029AFEF756
:101510005DFE616802980844606009E0D4E9001249
:1015200088184A463946FEF751FE606848446060B4
:10153000002034E72DE9F04190B004460D461646F0
:101540009846169F23460CA2302104A8009501F06E
:1015500041FC01200021CDE9000133460A4604A9DF
:10156000CDE902070A20FFF709FF18B1012010B0EA
:10157000BDE8F0810020FAE7247379732F25732FDB
:1015800025732F7468696E672F70726F706572743F
:10159000792F706F737400002DE9FF5F8046174646
:1015A00099460E9C0026B246B3460025B8F1000FBE
:1015B00003D1012004B0BDE8F09F0BE057F82500EF
:1015C00008B90220F6E757F82500FEF74BFE06445F
:1015D000681CC5B24D45F1DB09EB4900801C00EBEE
:1015E000060A0AF105012046FFF74BFD206808B9FD
:1015F0000320DFE782216268501C6060206881540C
:10160000D4E9000281185046FFF724FD0FFA80FB51
:10161000BBF1000F04DA2046FFF70EFD0420C9E7F6
:101620006068584460604FEA18216268501C60602E
:10163000206881546268501C6060206800F8028055
:10164000002524E057F82500FEF70CFE0646C6F3F9
:1016500007216268501C6060206881546268501CD9
:10166000606020688654D4E90023D01857F825100C
:101670003246FEF70CFE6068304460600198C1B2EB
:101680006268501C606020688154681CC5B24D457A
:10169000D8DB00208EE7F0B504460D462646012330
:1016A00000201060002114E0775C07F07F071068CD
:1016B00007FB03001060705C00F0800008B9481C54
:1016C000F0BDDB01B3F5001F02D36FF00100F7E7B7
:1016D000491CA942E8DB4FF0FF30F1E701464878AA
:1016E000022801D001207047887810B1887801283D
:1016F00001D1C878F7E7FF20F5E700002DE9FC5F8E
:1017000081460D4614461E46DDE90C8B99F8000013
:1017100000F00F0A002001900AF008000090CAF3C0
:1017200041008BF8000001AA042109F10100FFF734
:10173000B2FF4844471C0198022802D30AF0010076
:1017400010B1FF20BDE8FC9F7878397840EA01208D
:1017500020802088801C0199884201D9FF20F1E770
:101760004EA1B81CFEF762FD08B10F20EAE79BF816
:10177000000020B101283DD0022877D13BE000983D
:1017800008B1FF20DEE72188481C04F053FF2860E1
:10179000286808B9FF20D5E72288511C2868FEF781
:1017A0002EFD2288B91C2868FEF710FD0198801EC6
:1017B0002188401AA8F80000B8F80010481C04F06E
:1017C00039FF3060306820B9286804F063FBFF20DF
:1017D000B8E7B8F80020511C3068FEF710FDB8F8E3
:1017E0000020B4F800C0BB1C0CEB03013068FEF70E
:1017F000EDFC4FE000BF2088801C0199884201D990
:10180000FF209FE72088C01C395C2088801C385C42
:1018100041EA00210E9801800E9808B9FF2091E757
:101820002188481C04F006FF2860286808B9FF20BA
:1018300088E72288511C2868FEF7E1FC2288B91C41
:101840002868FEF7C3FC0198001F2188401AA8F8F9
:101850000000B8F80010481C04F0ECFE306030685E
:1018600028B9286804F016FBFF206BE710E0B8F8F1
:101870000020511C3068FEF7C2FCB8F80020B4F814
:1018800000C03B1D0CEB03013068FEF79FFC01E03C
:10189000FF2057E700BF002054E700002463726573
:1018A0007100000001464878022801D001207047ED
:1018B000887820B9C8780A2801D10020F7E70120EC
:1018C000F5E70000F8B50446FF2720780511012D43
:1018D00001DB0E2D01DD3846F8BD032D24D100209B
:1018E00000906A460421601CFFF7D5FE2044461C88
:1018F0000098022803D3207800F0010008B1FF20EF
:10190000EAE77078317840EA0120801C009988422B
:1019100001D9FF20E0E706A1B01CFEF787FC08B163
:101920000F2700E0032700E02F463846D4E70000E9
:1019300024637265710000000146FF208A78A2B915
:10194000CA78142A11D10A7932B1012A05D0022AA3
:1019500004D0802A06D103E000BF00BF002003E0CE
:10196000012001E0022000BF00BF704700BFFEE77A
:101970007047000070B5002100230F22C47804B323
:10198000154C246804F4E064C4F5E064210AC1F154
:101990000403CA40447804FA03F1847814402143D4
:1019A00009010E4C0678A155047804F01F050124A6
:1019B000AC4005786D11AD0005F1E025C5F800419A
:1019C00009E0047804F01F050124AC40044D0678BA
:1019D000761145F8264070BD0CED00E000E400E013
:1019E00080E100E002490143024A116070470000B3
:1019F0000000FA050CED00E02DE9FF4F87B08B46A3
:101A0000144699460798FEF757FE05460E46584677
:101A1000FEF752FE07462A46334603F057FF124AA6
:101A2000124BCDE90001FEF7CFFD0022104BCDE9AE
:101A30000201FEF757FDCDE90401FEF75BFE0FFA48
:101A400080FA4C4507DAA2450BDBCA4509DC0120C8
:101A50000BB0BDE8F08FA24501DACA4501DC0120D8
:101A6000F6E70020F4E700001F85EB51B81E09409F
:101A70000080664010B50246012000E050430B1E76
:101A8000A1F10101FAD110BD70B504460E4615460C
:101A90000CB1207C10B94FF0FF3070BD46F0B001A2
:101AA000204603F0A1F8102040EA1511204603F06B
:101AB0009BF805F00F01204603F096F80020ECE7B4
:101AC0002DE9F04305460C461F46079E4FF0000CDB
:101AD00000216B1E34E032F91100B04201DD01201B
:101AE00000E0002032F91380B04502DD4FF001081C
:101AF00001E04FF0000840451FD034F9130034F9DD
:101B00001180A0EB080032F91180A6EB080800FB59
:101B100008F032F9138032F91190A8EB090890FB14
:101B2000F8F034F911804044B84206DDBCF1000FF2
:101B300001D1012000E0002084460B46481C01B280
:101B4000A942C8DB0CF0FF00BDE8F083F0B58BB014
:101B50000546002600242846FEF784FBC7B20DB1D7
:101B60001C2F02DA01200BB0F0BD06E0A85D01A930
:101B700088550020A855701CC6B2BE42F6DB002076
:101B800001A988550026002455E001A8805D2B2876
:101B900010D008DC202814D023282ED0252825D0CA
:101BA00026283FD130E02F2812D03D2833D03F28BF
:101BB00038D114E0281923A1FEF72CFBE01CC4B295
:101BC00036E0281920A1FEF725FBE01CC4B22FE067
:101BD00028191EA1FEF71EFBE01CC4B228E028193C
:101BE0001BA1FEF717FBE01CC4B221E0281919A1C4
:101BF000FEF710FBE01CC4B21AE0281916A1FEF78C
:101C000009FBE01CC4B213E0281914A1FEF702FB83
:101C1000E01CC4B20CE0281911A1FEF7FBFAE01C8D
:101C2000C4B205E001A8805D2855601CC4B200BFA5
:101C300000BF701CC6B2BE42A7DB0020285500BF03
:101C400091E700002532420025323000253246005F
:101C50002533460025323500253233002532360043
:101C6000253344002DE9F04FC9B005460C46164611
:101C70001F460DF5A47898E8000F0020489055B154
:101C80004CB13F48864206D32FB1B9F1000F02D0C4
:101C9000BAF1780F03DA012049B0BDE8F08F402196
:101CA00018A8FEF7ACFA3846FEF7DCFA05903B467A
:101CB00048AA4021009018A8FEF7B8FF482106A8BE
:101CC000FEF79DFABBF1000F09D02EA033462FA2DC
:101CD00048218DE8310006A801F07CF809E029A030
:101CE000334630A248218DE81101039506A801F082
:101CF00071F8402128A8FEF782FA06A8FEF7B2FA8A
:101D0000059018A8FEF7AEFA049028A8009006AA3D
:101D100018A8DDE9041304F00BF9002048904021D5
:101D200038A8FEF76CFA28A8FEF79CFA059028ABB5
:101D300048AA4021009038A8FFF72EF838A8FFF7EE
:101D400005FFBBF1000F0CD038A80EA12B461DA239
:101D5000CDE90046CDE902105146484601F03AF877
:101D60000CE038A807A12B46244ACDE9018600944F
:101D7000CDE903105146484601F02CF800208BE7CE
:101D80009554415D736861310000000025640A25A7
:101D9000730A70726F64756374732F25730A2573E9
:101DA0000000000025640A25730A70726F64756371
:101DB00074732F25732F646576696365732F25739C
:101DC0000A25730076657273696F6E3D25732672FE
:101DD00065733D70726F6475637473252532462593
:101DE000732665743D2564266D6574686F643D25B2
:101DF00073267369676E3D2573000000D08B000861
:101E000000B597B00020139014901590169003A879
:101E1000029010A011A314A24021009003A800F08A
:101E2000D9FF03AA18A11E4800F096FF13A80123AA
:101E300002AA002100901420FFF7AEFB40B91498CD
:101E400082B2184813998369984713A8FFF7F4F8EA
:101E500017B000BD6465766963653100313942357C
:101E600067306951314E0000247379732F25732F29
:101E700025732F7468696E672F70726F7065727446
:101E8000792F736574000000537562736372696221
:101E90006520546F7069633A2025730D0A000000B5
:101EA00000380140A001002030B5B3B000202F90D1
:101EB0003090319032900125A02107AA38A3CDE9B6
:101EC0000032CDE9021038A3434A44A146A0FFF7EF
:101ED000C9FE07A841A332A246A10090514800F0D4
:101EE0003BFF2FA8002102910391CDE90410084681
:101EF00001210B022AA2CDE9001007A937A0FFF7A4
:101F0000EDF8002844D1309882B247482F99836970
:101F100098474548FA21C26990470446002C33D0BF
:101F20002046FFF7CFFC02282ED12046FFF7D6FB34
:101F3000062823D2DFE800F003090E13181D3BA189
:101F4000384800F009FF00251DE040A1354800F0A9
:101F500003FF18E048A1334800F0FEFE13E052A151
:101F6000304800F0F9FE0EE059A12E4800F0F4FED2
:101F700009E065A12B4800F0EFFE04E072A12948BA
:101F800000F0EAFE00BF00BF2FA8FFF755F803E0FE
:101F900077A1244800F0E0FE284633B030BD0000B1
:101FA000646576696365310030525046793648463B
:101FB0005832467667776C706E3145784F7A6C3759
:101FC0004C6166587636334C7A5150393732504826
:101FD0006E51383D0000000000CF9D74313942350C
:101FE00067306951314E0000323031382D31302D9B
:101FF000333100004F6E654E45545F4465764C6941
:102000006E6B0D0A4E414D453A2025732C095052F6
:102010004F49443A2025732C094B45593A25730DF5
:102020000A00000000380140A001002054697073CC
:102030003A20436F6E6E656374696F6E20737563CB
:102040006365737366756C0D0A0000005741524E4C
:102050003A20436F6E6E656374696F6E20666169C6
:102060006C65643A2050726F746F636F6C20657298
:10207000726F720D0A0000005741524E3A20436FB2
:102080006E6E656374696F6E206661696C65643A33
:1020900020496E76616C696420636C69656E74209A
:1020A00049440D0A000000005741524E3A20436F48
:1020B0006E6E656374696F6E206661696C65643A03
:1020C00020536572766572206572726F720D0A0018
:1020D0005741524E3A20436F6E6E656374696F6E5E
:1020E000206661696C65643A20496E76616C69644A
:1020F00020757365726E616D65206F7220706173FB
:1021000073776F72640D0A005741524E3A20436F45
:102110006E6E656374696F6E206661696C65643AA2
:1021200020556E617574686F72697A6564202865E0
:102130002E672E2C20696E76616C696420746F6B3B
:10214000656E290D0A0000004552523A20436F6E19
:102150006E656374696F6E206661696C65643A20B0
:10216000556E6B6E6F776E206572726F720D0A001E
:102170005741524E3A094D5154545F5061636B655B
:1021800074436F6E6E656374204661696C65640D9F
:102190000A00000030B5C1B004464FF4807101A8B8
:1021A000FEF72DF820A12046FEF785F84FF4807148
:1021B00001A8FEF724F82248427A22A101A800F0E3
:1021C00023FE01A92046FEF725F84FF4807101A8EF
:1021D000FEF715F81A48827A21A101A800F014FE32
:1021E00001A92046FEF716F84FF4807101A8FEF70A
:1021F00006F82248C169884708B121A000E022A062
:1022000005462A4622A101A800F0FEFD01A92046AC
:10221000FEF700F823A12046FDF7FCFF2046FEF75D
:1022200021F880B241B030BD7B226964223A22316C
:102230003233222C22706172616D73223A7B00006E
:10224000C80000202274656D7065726174757265D6
:10225000223A7B2276616C7565223A25647D2C00DA
:102260002268756D6964697479223A7B2276616CA3
:102270007565223A25647D2C0000000024000020B2
:10228000747275650000000066616C736500000083
:10229000226C6564223A7B2276616C7565223A2550
:1022A000737D00007D7D00002DE9F04389B0074675
:1022B00000200890079006900590049000250026C5
:1022C0003846FFF7FFFA0546032D04D0042D3AD017
:1022D000092D4FD140E0334804A905AA08ABCDE948
:1022E0000021029006AA07A93846FFF707FA06461A
:1022F000002E27D1BDF814000899CDE90010BDF8D3
:10230000183029A13748079A00F026FD089803F0F5
:10231000F7FB804634A1404603F0D2FB814634A14E
:10232000484603F0CDFB04464CB1E068012803D1D8
:1023300030484169884702E02E4881698847404615
:1023400003F092FB00BF3846FFF7ACFA18B92AA198
:10235000244800F001FD10E03846FFF7EDFA20B9FF
:102360002DA1204800F0F8FC03E032A11D4800F048
:10237000F3FC02E04FF0FF3600BF00BF34480169B4
:102380008847701C10B909B0BDE8F0830F2D01D04B
:10239000032D05D1079803F07DFD089803F07AFD21
:1023A00000BFF0E746010020746F7069633A202592
:1023B000732C20746F7069635F6C656E3A202564BE
:1023C0002C207061796C6F61643A2025732C207029
:1023D00061796C6F61645F6C656E3A2025640D0AEB
:1023E0000000000000380140706172616D730000F0
:1023F0006C65640024000020546970733A094D51E3
:102400005454205075626C6973682053656E642063
:102410004F4B0D0A00000000546970733A094D518A
:10242000545420537562736372696265204F4B0D7B
:102430000A000000546970733A094D5154542053F6
:102440007562736372696265204572720D0A0000DD
:10245000A001002030B5C5B00020419042904390CB
:102460004490002400254FF4807101A8FDF7C7FEB9
:1024700001A8FFF78FFE04B2002C27D041A800234B
:10248000224613A1009014A0FFF754F8D0B908E039
:1024900001A8415D429A501C429041988154681CA9
:1024A00005B2A542F4DB429882B20E484199836995
:1024B00098470DA11048429A00F04EFC41A8FEF743
:1024C000BBFD03E00DA10C4800F046FC45B030BD5B
:1024D0006465766963653100313942356730695129
:1024E000314E0000A001002053656E642025642059
:1024F00042797465730D0A00003801405741524E0D
:102500003A094544505F4E657742756666657220AC
:102510004661696C65640D0A0000000029B1064A35
:10252000D2690243044BDA6104E0034AD269824370
:10253000014BDA61704700000010024029B1064AE1
:1025400092690243044B9A6104E0034A9269824310
:10255000014B9A61704700000010024030B5002125
:102560000022002400232D4D6D6805F00C0121B1DF
:10257000042905D0082923D105E0294D056022E072
:10258000274D05601FE0254D6D6805F47012234D41
:102590006D6805F48034022505EB92421CB9214D8B
:1025A000554305600BE01D4D6D6805F400351DB108
:1025B0001C4D5543056002E0194D5543056002E08E
:1025C000174D056000BF00BF144D6D6805F0F001A8
:1025D0000909154D6B5C0568DD4045600F4D6D6860
:1025E00005F4E061090A104D6B5C4568DD408560CB
:1025F0000A4D6D6805F46051C90A0B4D6B5C456866
:10260000DD40C560054D6D6805F44041890B074DFF
:102610006B5CC568B5FBF3F5056130BD0010024089
:1026200000127A0000093D00320100204201002022
:1026300010B500F001F810BD0CB50020019000901D
:102640003348006840F480303149086000BF3048AA
:10265000006800F4003000900198401C0190009840
:1026600018B90198B0F5A06FF1D12948006800F4BD
:10267000003010B10120009001E00020009000988F
:10268000012843D12348006840F010002149086028
:102690000846006820F0030008600846006840F023
:1026A000020008601A4840681949486008464068B6
:1026B00048600846406840F48060486008464068CA
:1026C00020F47C1048600846406840F4E8104860F8
:1026D0000846006840F08070086000BF0C48006841
:1026E00000F000700028F9D00948406820F003008D
:1026F000074948600846406840F00200486000BF53
:102700000348406800F00C000828F9D10CBD000017
:10271000001002400020024010B500BF502080F39E
:102720001188BFF34F8FBFF36F8F00BF05F0EAFB37
:1027300018B14FF080500449086000BF002080F3BA
:10274000118800BF10BD000004ED00E010B5134873
:10275000006840F0010011490860084640681049CF
:1027600008400E494860084600680E4908400B4979
:1027700008600846006820F4802008600846406829
:1027800020F4FE0048604FF41F008860FFF750FF00
:102790004FF000600449086010BD000000100240C6
:1027A0000000FFF8FFFFF6FE08ED00E010B5012184
:1027B000880700F050F8012809D10121800700F0B6
:1027C00038F80348006810B101490868804710BD17
:1027D000E401002010B50121074800F03CF8012871
:1027E00009D10121044800F024F80448406810B1E0
:1027F00002494868804710BD00040040E401002001
:1028000010B50121074800F026F8012809D101215F
:10281000044800F00EF80448806810B10249886846
:10282000804710BD00080040E4010020CA43028236
:102830007047CA430282704721B1028842F0010208
:10284000028004E002884FF6FE731A40028070474F
:102850000146888C704730B50246002000230024D2
:10286000158A05EA0103958905EA010413B10CB143
:10287000012000E0002030BD0146088D70471AB1EC
:1028800083890B43838102E083898B438381704773
:1028900001894FF6F87211400181704700220288C9
:1028A0001D4B98420ED01D4B98420BD0B0F1804F7B
:1028B00008D01B4B984205D01A4B984202D01A4BB5
:1028C000984204D14FF68F731A404B881A43174B26
:1028D000984207D0164B984204D04FF6FF431A4057
:1028E000CB881A4302808B8883850B8803850A4B2B
:1028F00098420BD0094B984208D00E4B984205D015
:102900000D4B984202D00D4B984201D10B7A0386B1
:102910000123838270470000002C014000340140F5
:102920000004004000080040000C0040001000407F
:1029300000140040004001400044014000480140B4
:1029400010B540F22551044800F093F818B1202149
:10295000014800F05DF810BD0038014008B540F2B4
:102960002441114800F085F878B10F480088C0B2C2
:1029700000900D48001D0088C0B2009001200B4956
:10298000487000210A48FEF7ABFA40F2255106488C
:1029900000F06FF8012806D103F062FA40F22551E9
:1029A000014800F03EF808BD004400402B01002023
:1029B0006C00024008B540F22441124800F059F87A
:1029C00078B110480088C0B200900E48001D008801
:1029D000C0B2009001200C49887000210B48FEF71E
:1029E0007FFA40F22551074800F043F8012807D14B
:1029F000044802F0A5F940F22551024800F011F810
:102A000008BD0000004800402B01002030000240BB
:102A100001F40072B2F5007F00D100BFCA4302800A
:102A2000704710B50022002340F66A14A14200D17D
:102A300000BF0A1201249440A3B2DC43048010BDFD
:102A400021B1828942F40052828104E082894DF6EC
:102A5000FF731A408281704702460020B1F5007F63
:102A600000D100BF13880B400BB1012000E0002013
:102A7000704770B50246002400230025002040F670
:102A80006A16B14200D100BFC1F3421501F01F0325
:102A9000012606FA03F3012D02D19689334006E0A0
:102AA000022D02D1168A334001E0968A33400C127F
:102AB000012606FA04F41688344013B10CB1012043
:102AC00000E0002070BDF0B503460024002600257C
:102AD000002040F66A17B94200D100BF1846C1F382
:102AE000421401F01F06012707FA06F5012C01D157
:102AF0000C3004E0022C01D1103000E014301AB187
:102B000007682F43076002E00768AF430760F0BD26
:102B10002DE9F04786B005460E460024A24600BFC8
:102B2000A1460027B08900B100BF2F462C8A4CF681
:102B3000FF700440F08804432C82AC894EF6F310F9
:102B40000440B08831890843718908430443AC814B
:102B5000AC8A4FF6FF400440B0890443AC8201A820
:102B6000FFF7FCFC1F48874202D1DDF810A001E00E
:102B7000DDF80CA0A88900F4004040B10AEBCA00BF
:102B800000EB0A1031684900B0FBF1F807E00AEBEE
:102B9000CA0000EB0A1031688900B0FBF1F864202C
:102BA000B8FBF0F004012009642101FB1089A88919
:102BB00000F4004040B1322000EBC900B0FBF1F05E
:102BC00000F00700044308E0322000EB0910642104
:102BD000B0FBF1F000F00F0004432C8106B0BDE81B
:102BE000F08700000038014001468888C0F30800E3
:102BF0007047C1F308028280704700BFFEE7000003
:102C000010B586B0044601210420FFF797FC01218E
:102C10008803FFF793FC18208DF817004FF400701D
:102C2000ADF8140003208DF8160005A91D48FEF725
:102C300064F904208DF817000002ADF81400032099
:102C40008DF8160005A91748FEF757F901940020E2
:102C5000ADF810000C20ADF80E000020ADF80C000F
:102C6000ADF80A00ADF8080001A90F48FFF750FFC2
:102C700001210D48FFF7E4FE012240F225510A48E8
:102C8000FFF721FF25208DF8000001208DF80300BB
:102C900000208DF801008DF802006846FEF76AFEFC
:102CA00006B010BD000801400038014010B586B0E4
:102CB000044601210420FFF741FC01214804FFF7ED
:102CC0002DFC18208DF817000420ADF81400032007
:102CD0008DF8160005A91E48FEF70FF904208DF89F
:102CE00017000820ADF8140003208DF8160005A980
:102CF0001748FEF702F901940020ADF810000C20EF
:102D0000ADF80E000020ADF80C00ADF80A00ADF8EB
:102D1000080001A90F48FFF7FBFE01210D48FFF74E
:102D20008FFE012240F225510A48FFF7CCFE2620F3
:102D30008DF8000001208DF8030000208DF80100BF
:102D40008DF802006846FEF715FE06B010BD0000C3
:102D500000080140004400400FB430B5CBB0054638
:102D600001AC50A800904FF4947101A8009B4F9AB9
:102D700000F05EF8002000900BE014F8011B2846DC
:102D8000FFF737FF00BF40212846FFF765FE002808
:102D9000F9D020780028F0D14BB030BC5DF814FB9E
:102DA0002DE9F04107460C46154600260DE014F8C3
:102DB000011B3846FFF71DFF00BF40213846FFF7D3
:102DC0004BFE0028F9D0701C86B2AE42EFDBBDE8A6
:102DD000F08100000FB47CB50C0009AD01D0611E7C
:102DE00000E00021CDE90001064B6A46294608981B
:102DF00002F0C8F8002C02D0009A002111707CBCAF
:102E00005DF814FB8B5600080FB4084B10B504A9ED
:102E100002AA039802F0B6F8044602A9002002F0C4
:102E20003FFC204610BC5DF814FB0000A1560008D2
:102E30007CB50C001D461646014601D0601E00E020
:102E40000020CDE90010064B6A462946304602F0C4
:102E500099F8002C02D0009A002111707CBD00006E
:102E60008B56000837B514460846064B6A4621467D
:102E700002F088F804466946002002F011FC204662
:102E80003EBD0000A1560008490050EAC12018BF0D
:102E900004204A0D18BF40F0010040F2FF72B2EB6F
:102EA000515F08BF40F00200012808BF05207047AD
:102EB00038B504460CB1207A10B94FF0FF3038BD58
:102EC000002548208DF8030003208DF80200A0881B
:102ED00080B2ADF8000069462068FEF70EF804E005
:102EE000681CC5B2012002F089FEA28891B2206858
:102EF000FEF78EF808B1642DF2DB642D02DB6FF073
:102F00000100DCE7002504E0681CC5B2012002F0E6
:102F100075FEA28891B22068FEF77AF808B9642D90
:102F2000F2DB642D02DB6FF00200C8E70020C6E789
:102F3000014609B1087A10B94FF0FF307047002000
:102F4000087200BFFAE77CB504460CB1207A10B9CC
:102F50004FF0FF307CBD204600F068F82046FFF7B8
:102F6000A7FF00BB002506E0204600F04EF80DF854
:102F70000500681CC5B2052DF6DB9DF800009DF824
:102F8000011008449DF8021008449DF803100844FD
:102F90009DF80410884209D19DF80000A0729DF8A8
:102FA0000200607202E06FF00100D3E70020D1E779
:102FB00070B50446002504E0681CC5B2012002F08B
:102FC0001DFEA28891B22068FEF722F808B1642D98
:102FD000F2DB002504E0681CC5B2012002F00EFE01
:102FE000A28891B22068FEF713F808B9642DF2DBCD
:102FF000282002F003FEA28891B22068FEF708F8AC
:1030000008B1012070BD0020FCE770B50646002421
:10301000002507E06006040E3046FFF7C9FF0443B1
:10302000681CC5B2082DF5DB204670BD38B50446D6
:103030000CB1207A10B94FF0FF3038BD10208DF858
:10304000030003208DF80200A08880B2ADF80000D4
:1030500069462068FDF751FFA28891B22068FDF70C
:10306000E0FF142002F0BEFDA28891B22068FDF7B7
:10307000DAFF1E2002F0C2FD0020DEE710B5044694
:103080000CB1207A10B94FF0FF3010BD4FF4007131
:103090000348FDF7B4F800200249088000BFF4E7B8
:1030A000F00100202601002070B506460D460024E0
:1030B00000BF00F085F880B90DA10F48FDF7B6F804
:1030C000044654B13A212046FDF7C2F8044614B133
:1030D000641C204670BD0020FCE7052002F082FD44
:1030E000281EA5F101018DB2E3D100BFF2E7000077
:1030F0004950442C00000000F00100202DE9F0416F
:1031000004460D4616460CB1207A18B94FF0FF3030
:10311000BDE8F081C8272846FDF7A4F81FFA80F81B
:10312000424629460D48FFF73BFE0FE000F048F805
:1031300048B931460A48FDF779F820B12046FFF733
:103140009DFF0020E4E70A2002F04CFD381EA7F1A5
:103150000101CFB2EAD10120DAE7000000440040CB
:10316000F001002070B588B004460D4616460CB13B
:10317000207A18B94FF0FF3008B070BD2046FFF735
:103180007DFF324608A16846FFF73EFE0AA2694667
:103190002046FFF7B3FF20B9324629460748FFF71C
:1031A000FFFD0020E8E7000041542B434950534500
:1031B0004E443D25640D0A003E00000000440040DE
:1031C0000A48008808B90120704708480088084963
:1031D0000988884203D1002004490880F4E70348A5
:1031E0000088034908800120EEE700002601002046
:1031F00028010020014609B1087C10B94FF0FF30CA
:1032000070470020087400BFFAE72DE9F04104463A
:103210000D4616461F460CB1207C18B94FF0FF3002
:10322000BDE8F081204600F0FEF86806010E204659
:1032300000F0DBF8204600F069F83146204600F047
:10324000D4F8204600F062F8204600F0ECF80120A7
:1032500000EB4500C1B2204600F0C7F8204600F060
:1032600055F8204600F066F838700121204600F03D
:10327000A7F8204600F0EFF80020D1E72DE9F0474D
:1032800005460E4690461F46DDF820900DB1287C7D
:1032900018B94FF0FF30BDE8F087284600F0C3F8BA
:1032A0007006010E284600F0A0F8284600F02EF81F
:1032B0004146284600F099F8284600F027F82846AD
:1032C00000F0B1F8012000EB4600C1B2284600F042
:1032D0008CF8284600F01AF8002410E0284600F088
:1032E00029F809F80400781EA04201D1012000E06D
:1032F00000200146284600F063F8601CC4B2BC42BE
:10330000ECDB284600F0A7F80020C4E770B50446BF
:103310000121204600F044F80121204600F026F863
:10332000204600F033F805460021204600F01EF844
:10333000284670BD70B5064600250121304600F0D4
:103340002FF807240EE00121304600F00FF8304638
:1033500000F01CF8A0402843C5B20021304600F020
:1033600005F8641E002CEEDA284670BD70B50446E0
:103370000D46207C10B94FF0FF3070BDA28891B28D
:103380002A462068FDF751FE0020F6E770B5044696
:10339000A28991B2A068FDF73BFE0546284670BDA4
:1033A00070B504460D46207C10B94FF0FF3070BD5B
:1033B000A28991B22A46A068FDF737FE0020F6E701
:1033C00070B504460D4614B94FF0FF3070BD294664
:1033D0002046FFF7E5FF01212046FFF7C7FF002148
:1033E0002046FFF7C3FF0020F0E770B505460E4604
:1033F00015B94FF0FF3070BD002410E0802020414F
:1034000000EA06012846FFF7CBFF01212846FFF717
:10341000ADFF00212846FFF7A9FF601CC4B2082CAD
:10342000ECDB0020E7E710B5044614B94FF0FF309D
:1034300010BD01212046FFF7B3FF01212046FFF711
:1034400095FF00212046FFF7ABFF00212046FFF744
:103450008DFF0020ECE710B5044614B94FF0FF30A3
:1034600010BD00212046FFF781FF00212046FFF715
:1034700097FF01212046FFF779FF01212046FFF742
:103480008FFF0020ECE72DE9F04104460D4616467B
:103490001F460CB1207C18B94FF0FF30BDE8F08119
:1034A0002046FFF7C0FF6806010E2046FFF79DFF8C
:1034B0002046FFF72BFF31462046FFF796FF2046B8
:1034C000FFF724FF39462046FFF78FFF2046FFF71E
:1034D0001DFF2046FFF7BFFF0020DFE72DE9F04783
:1034E00005460E4617469846DDF820900DB1287C1B
:1034F00018B94FF0FF30BDE8F0872846FFF793FF7B
:103500007006010E2846FFF770FF2846FFF7FEFE03
:1035100039462846FFF769FF2846FFF7F7FE0024E3
:1035200009E019F804102846FFF75FFF2846FFF767
:10353000EDFE601CC4B24445F3DB2846FFF78BFF69
:103540000020D8E72DE9F0414F1E00EBC7010446EB
:10355000D1E9000115461E4637F006020DD02A4675
:103560003346FCF7BFFF7F1E04EBC703D3E90023FC
:10357000FCF711FF37F00602F1D1022F25D0042FFE
:1035800013D0062F18BFBDE8F0812A463346FCF75A
:10359000A9FFD4E90A23FCF7FEFE2A463346FCF7CE
:1035A000A1FFD4E90823FCF7F6FE2A463346FCF7D0
:1035B00099FFD4E90623FCF7EEFE2A463346FCF7D2
:1035C00091FFD4E90423FCF7E6FE2A463346FCF7D4
:1035D00089FFD4E90223FCF7DEFE2A463346FCF7D6
:1035E00081FFD4E90023BDE8F041FCF7D4BE10B55B
:1035F00004460CB1207B10B94FF0FF3010BD20699C
:1036000002F048FC00202061207300BFF6E701466D
:103610000A6909B1087B10B94FF0FF307047107884
:10362000FCE770B5044625690CB1207B10B94FF05A
:10363000FF3070BD227AA38899B22068FDF7F5FCAF
:103640000020287000BFF4E770B5044625690CB16E
:10365000207B10B94FF0FF3070BD237A0BB90123E6
:1036600000E000231A46A38899B22068FDF7DDFC2C
:10367000012028700020EFE710B504460CB1207B34
:1036800010B94FF0FF3010BD2046E169884718B1EE
:103690002046A169884702E02046616988470020EA
:1036A000F1E700000022134610460149FCF78CBFE9
:1036B0000000F03F0122FDF7B7B9FCF76CBE002215
:1036C000134610461146FCF77FBF40F2013200203E
:1036D0004FF0E041FDF7A8B9024A00201107FDF7BD
:1036E000A3B9000001FDFFFF70B501464C6909B1A7
:1036F000087C10B94FF0FF3070BD002210E00023AD
:103700000AE0002094F84050074E06EB852505EBB3
:10371000C215E854581CC3B2802BF2DB501CC2B255
:10372000082AECDB0020E7E7F00300202DE9F04F4A
:1037300005460C461F46DDF824C0D5F814800DB1AF
:10374000287C18B94FF0FF30BDE8F08F7F2C02DDE8
:103750004FF0FF30F8E73F2A02DD4FF0FF30F3E78C
:10376000E019802802DDC4F18000C7B202EB0C0032
:10377000402803DDC2F1400000F0FF0C114638E0A4
:10378000264631E008464FEAE17901EB59794FEAE4
:10379000E90998F840A0DFF868B00BEB8A2A0AEB39
:1037A000C91919F806900B464FEAE17A01EB5A7AEB
:1037B0004FEAEA0AA1EBCA0B4FF0010A0AFA0BFA28
:1037C00029EA0A094FEAE17A01EB5A7A4FEAEA0A52
:1037D00098F840B0DFF828E00EEB8B2B0BEBCA1A01
:1037E0000AF80690701CC6B2E019B042CADC481C48
:1037F000C1B202EB0C008842C2DC0020A4E700004A
:10380000F003002070B504460CB1207C10B94FF0D5
:10381000FF3070BD65692846E96B8847606902F032
:1038200039FB00206061207400BFF2E72DE9F05FF2
:1038300082460F4616469B46BAF1000F02D09AF810
:10384000100018B94FF0FF30BDE8F09FCBF101092F
:1038500000255C4621462846DDE90A23FEF7CCF820
:1038600030B13019C2B27819C1B2504600F082FCB2
:10387000604201B2684200B2DDE90A23FEF7BCF8FB
:1038800030B1301BC2B2781BC1B2504600F072FC9E
:1038900029462046DDE90A23FEF7AEF830B170195B
:1038A000C2B23819C1B2504600F064FC684201B29D
:1038B000604200B2DDE90A23FEF79EF830B1701BCA
:1038C000C2B2381BC1B2504600F054FC0C98B8B1DB
:1038D00060420FFA80F811E041460020DDE90A233A
:1038E000FEF78AF830B106EB0800C2B239465046FE
:1038F00000F040FC08F101000FFA80F8A045EBDB76
:10390000DFE0681C05B2B9F1000F05DA6800401C61
:1039100048440FFA80F907E0601E04B2281B4000FB
:10392000401C48440FFA80F921462846DDE90A2365
:10393000FEF762F830B13019C2B27819C1B2504600
:1039400000F018FC29462046DDE90A23FEF754F86A
:1039500030B17019C2B23819C1B2504600F00AFC39
:10396000604201B2684200B2DDE90A23FEF744F882
:1039700030B1301BC2B2781BC1B2504600F0FAFB26
:10398000684201B2604200B2DDE90A23FEF734F872
:1039900030B1701BC2B2381BC1B2504600F0EAFB16
:1039A000604201B22846DDE90A23FEF725F830B16E
:1039B000301BC2B27819C1B2504600F0DBFB68423E
:1039C00001B22046DDE90A23FEF716F830B1701B7C
:1039D000C2B23819C1B2504600F0CCFB2146684251
:1039E00000B2DDE90A23FEF707F830B13019C2B2A0
:1039F000781BC1B2504600F0BDFB2946604200B2C0
:103A0000DDE90A23FDF7F8FF30B17019C2B2381BA7
:103A1000C1B2504600F0AEFB0C98002851D0604275
:103A20000FFA80F822E041462846DDE90A23FDF737
:103A3000E3FF38B106EB0800C2B27819C1B25046B4
:103A400000F098FB4146684200B2DDE90A23FDF729
:103A5000D3FF38B106EB0800C2B2781BC1B25046A2
:103A600000F088FB08F101000FFA80F8A045DADBCE
:103A700068420FFA80F822E04146604200B2DDE978
:103A80000A23FDF7B9FF38B106EB0800C2B2381BB4
:103A9000C1B2504600F06EFB41462046DDE90A23E4
:103AA000FDF7AAFF38B106EB0800C2B23819C1B25F
:103AB000504600F05FFB08F101000FFA80F8A845BE
:103AC000DADBA542FFF61DAF0020BDE62DE9F05F71
:103AD00083460F4616469946BBF1000F02D09BF86D
:103AE000100018B94FF0FF30BDE8F09FC9F1010A8E
:103AF00000254C463019C2B27819C1B2584600F0C0
:103B000039FB301BC2B2781BC1B2584600F032FB01
:103B10007019C2B23819C1B2584600F02BFB701BA5
:103B2000C2B2381BC1B2584600F024FB0A9880B1DB
:103B300060420FFA80F80AE006EB0800C2B239468C
:103B4000584600F017FB08F101000FFA80F8A04575
:103B5000F2DB80E0681C05B2BAF1000F05DA6800FC
:103B6000401C50440FFA80FA07E0601E04B2281B84
:103B70004000401C50440FFA80FA3019C2B2781944
:103B8000C1B2584600F0F6FA7019C2B23819C1B283
:103B9000584600F0EFFA301BC2B2781BC1B258464B
:103BA00000F0E8FA701BC2B2381BC1B2584600F0F0
:103BB000E1FA301BC2B27819C1B2584600F0DAFA05
:103BC000701BC2B23819C1B2584600F0D3FA30198E
:103BD000C2B2781BC1B2584600F0CCFA7019C2B21A
:103BE000381BC1B2584600F0C5FA0A9898B3604233
:103BF0000FFA80F813E006EB0800C2B27819C1B2E0
:103C0000584600F0B7FA06EB0800C2B2781BC1B202
:103C1000584600F0AFFA08F101000FFA80F8A0450D
:103C2000E9DB68420FFA80F813E006EB0800C2B245
:103C3000381BC1B2584600F09DFA06EB0800C2B22C
:103C40003819C1B2584600F095FA08F101000FFA90
:103C500080F8A845E9DBA542FFF67CAF002043E7EA
:103C60002DE9F04F97B083460F4616469A46DDF889
:103C70008090BBF1000F02D09BF8100020B94FF0EC
:103C8000FF3017B0BDE8F08F00254C46C9F10000A9
:103C9000FCF712FD0022CA4BCDE90801FCF77BFBC3
:103CA000CDE90C010AFB0AF0FCF706FDCDE90A019B
:103CB000DDE90C23FCF716FCCDE9100109FB09F046
:103CC000FCF7FAFCCDE90E01DDE91023FCF763FBFC
:103CD000CDE91201FCF776FD15902198B8B160424C
:103CE0000FFA80F811E006EB0800C2B239465846D8
:103CF00000F040FA06EB0800C2B23946584600F020
:103D000039FA08F101000FFA80F8A045EBDB301911
:103D1000C2B27819C1B2584600F02CFA301BC2B2B8
:103D2000781BC1B2584600F025FA3019C2B2781B90
:103D3000C1B2584600F01EFA301BC2B27819C1B2A7
:103D4000584600F017FA61E000211598FCF756FD7F
:103D50000DD809FB09F16A00D21C01FB02F0FCF747
:103D6000A2FC13901599FCF7BEFA159014E009FB1C
:103D700009F16A00D21C51430AFB0AF26300C3F145
:103D8000020302FB0310FCF78EFC13901599FCF75D
:103D9000AAFA1590601E04B2681C05B22198C8B139
:103DA00060420FFA80F813E006EB0800C2B27819FF
:103DB000C1B2584600F0DEF906EB0800C2B2781B2B
:103DC000C1B2584600F0D6F908F101000FFA80F8A8
:103DD000A045E9DB3019C2B27819C1B2584600F0EB
:103DE000C9F9301BC2B2781BC1B2584600F0C2F903
:103DF0003019C2B2781BC1B2584600F0BBF9301B73
:103E0000C2B27819C1B2584600F0B4F92046FCF7A6
:103E100053FC00226A4BCDE90A01FCF75DFBCDE9BA
:103E20000E010AFB0AF0FCF747FCCDE90C01DDE9C5
:103E30000E23FCF757FBCDE9120109FB09F16A1CBF
:103E400001FB02F0FCF738FCCDE91001DDE912239B
:103E5000FCF788FCFFF478AF0AFB0AF101FB09F1DB
:103E600001FB09F0FCF728FCCDE910010AFB0AF17F
:103E7000621E514301FB02F0FCF71EFCCDE90C0170
:103E80002846FCF719FC00224D4BCDE90401FCF754
:103E900082FACDE908012846FCF70EFC0022484BC7
:103EA000CDE90001FCF777FACDE9040109FB09F03F
:103EB000FCF702FCCDE90201DDE90423FCF712FB6B
:103EC000CDE90601DDE90823FCF70CFBCDE90A0189
:103ED000DDE90C23FCF75FFACDE90E01DDE91023E3
:103EE000FCF7FAFACDE91201FCF76CFC149062E0E1
:103EF00000211498FCF782FC15D809FB09F16A002F
:103F0000921C51430AFB0AF26300C3F1030302FB54
:103F10000310FCF7C8FB13901499FCF7E4F9149014
:103F2000681C05B20DE00AFB0AF16200C2F103024F
:103F300001FB02F0FCF7B7FB13901499FCF7D3F9DF
:103F40001490601E04B22198C8B160420FFA80F844
:103F500013E006EB0800C2B27819C1B2584600F06F
:103F600009F906EB0800C2B2781BC1B2584600F04E
:103F700001F908F101000FFA80F8A045E9DB3019DA
:103F8000C2B27819C1B2584600F0F4F8301BC2B280
:103F9000781BC1B2584600F0EDF83019C2B2781B58
:103FA000C1B2584600F0E6F8301BC2B27819C1B26F
:103FB000584600F0DFF8002C9ADC002061E6000093
:103FC0000000E03F2DE9FF4F87B00F4616469846A8
:103FD000DDF85090079810B10798007C20B94FF099
:103FE000FF300BB0BDE8F08F4FF0000B00200190C8
:103FF0004E4511D1474503DDBA4647460AF0FF0852
:104000003C4606E0E1B23246079800F0B3F8601C87
:1040100004B24445F6DDAAE0474511D14E4503DD23
:10402000B2464E460AF0FF09354606E0EAB2394686
:10403000079800F09FF8681C05B24D45F6DD96E044
:10404000474507DDBA4647460AF0FF08B2464E46E6
:104050000AF0FF094E4507DD7042C6B2C9F1000003
:1040600000F0FF094FF0010BA9EB0600A8EB0701D8
:10407000884209DDBA4637460AF0FF06C246C846FE
:104080000AF0FF0901200190A8EB07000690A9EBB8
:10409000060005900598400000B20390DDE9050197
:1040A000401A400000B20290059841000698081A94
:1040B00000B204903C463546BBF1000F08D0019891
:1040C00030B16042C2B2E9B2079800F053F816E08E
:1040D000BBF1000F06D06842C2B2E1B2079800F00F
:1040E00049F80CE0019828B1E2B2E9B2079800F073
:1040F00041F804E0EAB2E1B2079800F03BF834E09E
:10410000601C04B20498002805DADDE903100844B5
:1041100000B2049006E0681C05B2029904980844B5
:1041200000B20490BBF1000F08D0019830B160429A
:10413000C2B2E9B2079800F01DF816E0BBF1000F1B
:1041400006D06842C2B2E1B2079800F013F80CE062
:10415000019828B1E2B2E9B2079800F00BF804E048
:10416000EAB2E1B2079800F005F84445C8DB002048
:1041700037E700002DE9F04103460C465D690BB1BD
:10418000187C18B94FF0FF30BDE8F0817F2C02DDBC
:104190004FF0FF30F8E73F2A02DD4FF0FF30F3E742
:1041A0001046D61702EB5676F61095F84070DFF8F9
:1041B00040C00CEB872707EBC616365D1146D717B4
:1041C00002EB5777FF10A2EBC70C012707FA0CF799
:1041D0003E43D71702EB5777FF1095F840C0DFF842
:1041E000108008EB8C2C0CEBC7173E550020CBE75A
:1041F000F00300202DE9F05F80460D4616461F466D
:10420000DDE90A9BB8F1000F02D098F8100018B948
:104210004FF0FF30BDE8F09FBBF1000F28D12C46D6
:104220000EE0324621464046FFF7A4FF06EB0900A8
:10423000401EC2B221464046FFF79CFF601CC4B23C
:10424000E819A042EDDC34460DE0224629464046FE
:10425000FFF790FFE819401EC1B222464046FFF723
:1042600089FF601CC4B206EB0900A042EDDC15E03A
:104270002C4610E0B24608E0524621464046FFF781
:1042800079FF0AF1010000F0FF0A06EB0900504532
:10429000F2DC601CC4B2E819A042EBDC0020B9E7F4
:1042A0002DE9FF4F87B01C46DDE91576149D079870
:1042B00010B10798007C20B94FF0FF300BB0BDE87B
:1042C000F08FDDF82080DDF82490DDF82080C246F4
:1042D000DDF82490CB46DDF82080ADF80C80ADF8F9
:1042E0000E40ADF81070DDF82490ADF80490ADF8F4
:1042F0000650ADF80860179898B92346009507A8AE
:1043000007C8FFF75FFE3B46009607A807C8FFF700
:1043100059FE3B462A46214600960798FFF752FE73
:1043200039E0444500DAA046474500DAB8464D4535
:1043300000DAA9464E4500DAB146544500DDA246F2
:10434000574500DDBA465D4500DDAB465E4500DD04
:10435000B346CDF818801BE0CDF8149011E0059815
:10436000009001AA03A90320069BFDF7A9FB20B139
:10437000DDE905210798FFF7FDFE0598401CC0B256
:10438000059005985845EADD0698401CC0B2069095
:1043900006985045E0DD002090E70000F0B50346A8
:1043A0005D697F2901DD0020F0BD3F2A01DD00208D
:1043B000FAE7D61702EB5676F61095F84070DFF85C
:1043C0002CC00CEB872707EBC616765CD71702EBE1
:1043D0005777FF10A2EBC70C012707FA0CF73E40F6
:1043E0000EB10120E0E70020DEE70000F00300202E
:1043F000F0B58BB004460E4617461D460CB1207C26
:1044000018B94FF0FF300BB0F0BD11A8029003A80F
:10441000029A1099FEF726FD0020029003AB3A465F
:1044200031462046009500F044FB0020EBE70000F9
:1044300070B5024654690AB1107C10B94FF0FF30D4
:1044400070BD002119E0002313E094F840000D4DE9
:1044500005EB802000EBC110C05C80F0FF0094F8F9
:104460004050084E06EB852505EBC115E854581C55
:10447000C3B2802BE9DB481CC1B20829E3DB002072
:10448000DEE70000F00300202DE9F04F05460C4662
:104490001F46DDF824C0D5F814800DB1287C18B96A
:1044A0004FF0FF30BDE8F08F7F2C02DD4FF0FF3082
:1044B000F8E73F2A02DD4FF0FF30F3E7E0198028EC
:1044C00002DDC4F18000C7B202EB0C00402803DD1E
:1044D000C2F1400000F0FF0C114638E0264631E002
:1044E00008464FEAE17901EB59794FEAE90998F872
:1044F00040A0DFF868B00BEB8A2A0AEBC91919F85B
:1045000006900B464FEAE17A01EB5A7A4FEAEA0A43
:10451000A1EBCA0B4FF0010A0AFA0BFA89EA0A0961
:104520004FEAE17A01EB5A7A4FEAEA0A98F840B08A
:10453000DFF828E00EEB8B2B0BEBCA1A0AF806907B
:10454000701CC6B2E019B042CADC481CC1B202EB12
:104550000C008842C2DC0020A4E70000F003002029
:104560002DE9F84F05460E4692461F46DDE90A89B9
:104570000DB1287C18B94FF0FF30BDE8F88F00244A
:1045800017E0A8EB0400411E0220FDF773FAB7FB09
:10459000F0F000F0010000F1300B04FB0960C1B243
:1045A0005B4652462846CDF8009000F007F8601CA4
:1045B000C4B24445E5DB0020DFE700002DE9FC4103
:1045C00004460F4690461D46089E0CB1207C18B943
:1045D0004FF0FF30BDE8FC81082E0ED1A5F1200080
:1045E000104901EB0010102108234246CDE90010CC
:1045F0003946204600F026F911E0062E0FD1A5F12C
:10460000200000EB4000084901EB40000821062390
:104610004246CDE900103946204600F013F900204B
:10462000D8E7000094800008848600082DE9FE4F3A
:1046300007468946924698460FB1387C18B94FF024
:10464000FF30BDE8FE8F00250020029000243BE0F3
:1046500018F8040002A94855681CC5B2032D31DBC7
:10466000002500260BE006EBC6011A4A02EB81008A
:1046700002A9FBF7FEFD00B90BE0701CC6B206EB09
:10468000C601144A02EB810013A1FBF7F2FD0028DA
:10469000E9D100BF601C032190FBF1F0401E09EB43
:1046A000001000F0FF0B06EBC6000A4901EB80008A
:1046B000001D10210B465246CDE9001059463846E0
:1046C00000F0C0F8601CC4B218F804000028BFD184
:1046D00000BFB6E7BE880008000000002DE9FF4FCC
:1046E00087B080460F46DDE91569149D189CB8F126
:1046F000000F02D098F8100020B94FF0FF300BB037
:10470000BDE8F08F0022134628463146FCF742F8F8
:1047100007D82B23009439464046099AFFF74EFFED
:1047200008E02D23009439464046099AFFF746FFDA
:1047300086F0004628463146FBF7FBFF8346584685
:10474000FBF7CBFF2A463346CDE90401FBF7C7FE52
:1047500005460E460A201799FDF78CF98246504609
:10476000FBF7BBFF2A463346CDE90001FBF7BAFE53
:10477000CDE9020103F038F9CDE90401FBF7D9FFD7
:1047800006900698B0FBFAF083443819C1B25B4634
:10479000CDE900944046099A00F016F909F10100AC
:1047A00000FB0470C1B22E2300944046099AFFF723
:1047B00005FF1798CDE9000409F1020000FB047021
:1047C000C1B24046069B099A00F0FEF8002096E729
:1047D0002DE9F84F0746884693469946DDE90AA534
:1047E0000FB1387C18B94FF0FF30BDE8F88F0024C6
:1047F00024E0AAEB0400411E1020FDF73BF9B9FBB1
:10480000F0F000F00F060A2E0BDA06F13000C3B20A
:1048100004FB0580C1B25A4638460095FFF7CEFE2C
:104820000AE006F13700C3B204FB0580C1B25A4664
:1048300038460095FFF7C2FE601CC4B25445D8DB71
:104840000020D2E72DE9F84F80460F4614469946DE
:10485000DDF828B0D8F814A0B8F1000F02D098F80D
:10486000100018B94FF0FF30BDE8F88F7F2F02DD40
:104870004FF0FF30F8E73F2C02DD4FF0FF30F3E759
:104880004B46224639464046CDF800B0FEF74EFF73
:10489000002589E0002681E0B8197F2800DD80E04E
:1048A000E11704EB517105EBE101072902DD4FF03F
:1048B000FF30D9E72046E21704EB527205EBE20223
:1048C0009AF84030DFF8FCC00CEB832303EBC212F4
:1048D000BB19D25C2146E31704EB5373DB10A4EB46
:1048E000C30305FB096EDDF82CC01CF80EC00CFAE2
:1048F00003FC42EA0C02E31704EB537305EBE303FA
:104900009AF840C0DFF8BCE00EEB8C2C0CEBC31324
:1049100007EB060C03F80C20E11704EB517105EBD3
:10492000E101491C072900DD36E02046E21704EBCF
:10493000527205EBE202521C9AF84030DFF884C054
:104940000CEB832303EBC212BB19D25C2146E317A5
:1049500004EB5373DB10A4EBC303C3F1080305FBA3
:10496000096EDDF82CC01CF80EC04CFA03FC42EABC
:104970000C02E31704EB537305EBE3035B1C9AF89B
:1049800040C0DFF840E00EEB8C2C0CEBC31307EBC0
:10499000060C03F80C2000BF701CC6B24E45FFF693
:1049A0007BAF00BF681CC5B2ABF10100C11700EBC3
:1049B0005171012202EBE101A9423FF76BAF0020E8
:1049C00052E70000F00300202DE9F84F05460E469F
:1049D00092461F46DDE90A890DB1287C18B94FF0CF
:1049E000FF30BDE8F88F00241AE0A8EB0400411E58
:1049F0000A20FDF73FF8B7FBF0F00A21B0FBF1F217
:104A000001FB120000F1300B04FB0960C1B25B46F0
:104A100052462846CDF80090FFF7D0FD601CC4B286
:104A20004445E2DB0020DCE72DE9FF4F81B007467B
:104A300089461D46DDE90EA60FB1387C20B94FF03E
:104A4000FF3005B0BDE8F08F002D08DB2B2300966A
:104A500049463846039AFFF7B1FDA84608E02D23E2
:104A6000009649463846039AFFF7A8FDC5F10008AD
:104A700000241AE0AAEB0400411E0A20FCF7FAFF0A
:104A8000B8FBF0F00A21B0FBF1F201FB120000F1DB
:104A9000300B601C00FB0690C1B25B4600963846A6
:104AA000039AFFF78BFD601CC4B25445E2DB002083
:104AB000C7E72DE9F84305460F4691461E46DDF847
:104AC00020800DB1287C18B94FF0FF30BDE8F88385
:104AD00000240BE0CDF80080335D04FB0870C1B208
:104AE0004A462846FFF76AFD601CC4B2305D0028C4
:104AF000F0D100BFEAE7000070B505466E690DB160
:104B0000287C10B94FF0FF3070BD002411E0002266
:104B100021462846FCF7B8FF96F84000074A02EB0A
:104B2000802000EBC4118022284600F084F8601C2D
:104B3000C4B2082CEBDB0020E6E70000F003002005
:104B40002DE9F04707460D4614469846DDF82090BB
:104B5000D7F814A00FB1387C18B94FF0FF30BDE87A
:104B6000F0877F2D02DD4FF0FF30F8E73F2C02DDAC
:104B70004FF0FF30F3E705EB0800802803DDC5F1B7
:104B8000800000F0FF0804EB0900402803DDC4F1B9
:104B9000400000F0FF092046E11704EB5171C1F31A
:104BA000C70612E02A4631463846FCF76DFF9AF8F0
:104BB00040000C4A02EB802000EBC610411942462F
:104BC000384600F038F8701CC6B204EB0901481EE4
:104BD000C11700EB5171012202EBE101B142E1DCAE
:104BE0000020BCE7F003002070B505460E466C6956
:104BF0000DB1287C10B94FF0FF3070BD20466169BF
:104C0000884778212046E26990472046A16A884774
:104C100000212046E26990472046A16A8847314634
:104C20002046E26990472046A16A88472046A1694C
:104C300088470020E1E72DE9F04105460F46904600
:104C40006C690DB1287C18B94FF0FF30BDE8F081D8
:104C500020466169884778212046E26990472046CE
:104C6000A16A884740212046E26990472046A16A10
:104C70008847002608E0B95D2046E2699047204653
:104C8000A16A8847701CC6B24645F4DB2046A1697C
:104C900088470020DAE702E008C8121F08C1002A8E
:104CA000FAD170477047002001E001C1121F002AAD
:104CB000FBD1704701490860704700009C0100204B
:104CC00010B504460CB1207B10B94FF0FF3010BD79
:104CD000206901F0DFF800202061207300BFF6E7B3
:104CE00070B505460C462868FDF7C6FD472802D07A
:104CF0004FF0FF3070BD04E04FF47A71284600F0A9
:104D000006F8201EA4F10104F6D12046F2E770B5A2
:104D100004460D462068FDF7AFFD472802D04FF04E
:104D2000FF3070BD2068FDF793FD064600BF206888
:104D3000FDF78EFD801BA842F9D32846F1E700005D
:104D400070B505462648854201D1002412E0254869
:104D5000854201D101240DE02348854201D102247E
:104D600008E02248854201D1032403E0204885421F
:104D700000D104242846FDF737FFC6B21D4800784D
:104D8000FF2827DA1C4800EB84211A4802780078B3
:104D9000401C184B18708E540A2E20D118460078EB
:104DA00001281CDD144800EB842118460078801E81
:104DB000085C0D2813D100210F4800EB842218460F
:104DC0000078801E115400201946087001200B49FC
:104DD000085504E00020074908700849085570BDCF
:104DE000003801400044004000480040004C0040B2
:104DF0000050004031010020F00700202B0100206E
:104E00002DE9FF5F82B00021DDE90430020DDDF8FD
:104E100040B0034318D044F61050A2F2FF32424390
:104E20001514119801281FD0A5EB0B00401C5FEA58
:104E3000000A4FF000064E4FDFF83891B04650465A
:104E400015D5CAF1000413E0119801244AA30128E2
:104E500001D16FEA0B010298119AC0E90031C0E953
:104E6000024206B0BDE8F09FCBF10000DFE7044648
:104E70000021404A491842EB0450CDE9001012E0ED
:104E8000E00707D032463B4640464946FBF72AFB3F
:104E90008046894632463B4610461946FBF722FBC0
:104EA00006460F466410002CEAD1DDE90401DDE975
:104EB0000023BAF1000F06DAFBF714FB42464B461B
:104EC000FBF710FB05E0FBF77FFB42464B46FBF789
:104ED0007BFB04460E460022284BFBF75BFC03D805
:104EE0004FF0FF30014607E00022254B20463146B7
:104EF000FBF751FAFBF7F4FD102409E0002C0ADB64
:104F00000A220023FBF79AFC039B30321A55641ED9
:104F100050EA0102F2D1641C039AC4F11103144453
:104F2000119A012A03D0012208430DD10AE0084357
:104F300004D000204FF0110B119072E7A3EB0B058A
:104F40006D1E0DE05B4504DD4FF0000205F101052B
:104F500004E003DA4FF00002A5F10105002AECD0CD
:104F600002981199C0E90231C0E9004579E70000D3
:104F7000000014400000F03F300000000000F0434B
:104F80000000E03F2DE9FF4F95B09A46884606465F
:104F90000025EEE1252877D100242746F94A012192
:104FA000039400E0044316F8013F203B01FA03F0AC
:104FB0001042F7D130782A2811D06FF02F033078C3
:104FC000A0F13002092A16D8039A44F0020402EB39
:104FD000820203EB42021044761C0390EFE758F87C
:104FE000042B0392002A03DA504244F40054039045
:104FF00044F00204761C30782E2816D116F8010FE2
:1050000044F004042A280DD06FF02F023078A0F16C
:105010003003092B09D807EB870302EB4303C718BA
:10502000761CF3E758F8047B761C30786C280FD098
:1050300006DC4C2817D068280DD06A2814D104E06B
:10504000742810D07A280FD10DE044F400140AE03F
:1050500044F4801401E044F440147278824202D196
:1050600004F58014761C761C307866280BD013DC8F
:10507000582877D009DC002875D04528F6D0462876
:10508000F4D047281AD193E118E0632835D064287A
:1050900079D0652812D18BE1702873D008DC67289D
:1050A000F1D069286FD06E280DD06F2806D1ACE002
:1050B00073282CD0752874D0782853D0524617996D
:1050C00090476D1C54E1C4F30250022809D0032814
:1050D0000DD0D8F8001004280DD00D6008F1040898
:1050E00046E1D8F80010EA17C1E90052F6E7D8F80F
:1050F00000100D80F2E70D70F0E718F8041B8DF832
:10510000001000208DF80100EB46012003E058F864
:1051100004BB4FF0FF3061074FF0000102D40DE0F7
:1051200009F101018946B9420FDA8145F8DB1BF824
:1051300009100029F4D108E009F1010189468142F2
:10514000FADB1BF809100029F6D103985346A0EBAF
:10515000090721463846179A00F080FA284400EBE8
:10516000090507E044E008E10DE01BF8010B524699
:1051700017999047B9F10109F7D2534621463846AD
:10518000179AF2E039E00A21C4F302524FF0000B03
:105190000091022A06D058F8040BC117032A09D03F
:1051A0000AE023E008F1070020F00702F2E802011C
:1051B000904605E000B2C117042A01D140B2C117E0
:1051C000002906DA0A460021404261EB02012D2245
:1051D00002E0220504D52B228DF80420012203E0F1
:1051E000E20701D02022F7E7914657E00A2100E0CC
:1051F00010214FF0000B00910BE010214FF0000B3D
:1052000044F004040827009103E008204FF0000B4D
:105210000090C4F30252022A05D058F8040B002172
:10522000032A08D008E008F1070020F00702F2E89E
:105230000201904603E080B2042A00D1C0B24FF0D0
:10524000000922072AD53278702A07D0DDF800C07D
:105250008CF0100C5CEA0B0C05D00EE040228DF8AF
:105260000420012208E050EA010306D030238DF823
:1052700004308DF8052002229146009B83F008033C
:1052800053EA0B030AD150EA010201D1620705D5A6
:1052900030228DF804204FF001097F1E3278582A01
:1052A00004D039A20C920CAA02920BE03BA2F9E7BF
:1052B0005B46009AFBF7C2FA0C9B9B5C029A521E5B
:1052C0000292137050EA0102F2D1029804A9081A5E
:1052D00000F1200B600702D524F4803400E00127A0
:1052E0005F4502DDA7EB0B0000E0002000EB0B01A7
:1052F000009003984944401A0390E00306D45346B3
:105300002146179A039800F0A9F90544002706E002
:1053100001A85246C05D179990476D1C7F1C4F45F0
:10532000F6DBE0030CD553462146179A039800F0AC
:1053300095F9054404E030205246179990476D1CBA
:105340000099481E00900029F5DC08E002980299B7
:1053500052460078491C0291179990476D1CBBF189
:105360000001ABF1010BF1DC5BE100F065F90544F4
:10537000761C307800287FF40DAE19B02846BDE8C1
:10538000F08F0000092801003031323334353637D0
:105390003839616263646566000000003031323381
:1053A0003435363738394142434445460000000021
:1053B000600700D4062708F1070020F00700F0E896
:1053C0000223804603F0004C5FEA0C0001D097A056
:1053D00009E0200501D596A005E0E00701D095A0E1
:1053E00001E0AFF24C001390307823F000436528C1
:1053F0000CD006DC452809D046281DD047287FD18F
:105400003BE0662818D067287AD136E00021112FBA
:1054100001DB112000E0781CCDE9000104A90CA8F3
:10542000FFF7EEFCDDE90D010C9A4FF0000B07F1E0
:105430000109109200914EE04FF000400097CDE935
:10544000011004A90CA8FFF7DBFCDDE90D020C9BA1
:105450000F994FF0000B91461093009211B9791CEF
:1054600000EB0109B7EB090003D4C0F1FF3B07F1E2
:105470000109A9EB0700019042E0012F00DA0127A2
:105480000021112F01DD112000E03846CDE9000197
:1054900004A90CA8FFF7B4FCDDE90D010C9A0091FA
:1054A0004FF0000BB946109221070FD4009A4A45DD
:1054B00003DA914601E0A9F10109B9F1010F05DD17
:1054C000109AA9F10101515C3029F4D0B84202DAF6
:1054D00010F1040F03DA0121CDE9011010E00028DA
:1054E00003DC8344A9EB000102E0411C494500DDD7
:1054F0008946A0EB0B00401C01904FF00040029049
:10550000200705D40198484502DB4FF0FF30019099
:1055100000208DF84B0002980DF14B07B0F1004FC1
:1055200025D002200C902B200D90029800280CDA38
:10553000404202902D200D9007E00A210298FBF7CF
:1055400067F93031029007F8011D0C99481E0C9044
:105550000029F2DC02980028EFD1791E0D9808701E
:10556000307800F0200040F0450007F8020D11A847
:10557000C01BC01D02901398007800B1012000EB01
:105580000901019801EBE071029801440398401A67
:10559000401E0390E00306D453462146179A039811
:1055A00000F05CF805441398007818B1524617993A
:1055B00090476D1CE00323D553462146179A039864
:1055C00000F04CF805441BE0BBF1000F07DB00982E
:1055D000584504DD1098179910F80B0001E0179951
:1055E00030205246904701980BF1010B401E05F107
:1055F0000105019004D12E205246179990476D1C49
:10560000B9F10001A9F10109DEDC05E017F8010B91
:105610005246179990476D1C0299481E0290002926
:10562000F4DC53462146179A03989EE62D000000AD
:105630002B000000200000002DE9F0410446002569
:105640001E461746880404D405E039462020B0479A
:105650006D1C641EF9D52846BDE8F0812DE9F041A6
:10566000044600251E469046C80301D5302700E0B9
:105670002027880404D505E041463846B0476D1C14
:10568000641EF9D52846BDE8F0814A68002A06D094
:105690000A68531C0B6010704868401E48607047D1
:1056A0000A68531C0B601070704700002DE9F84F1A
:1056B00004460D4621F0004000917349814211DCFF
:1056C0007249884201DC06D12CB120462946BDE84A
:1056D000F84FFDF7EFBF6E48002DCCBF6D496E4906
:1056E000BDE8F88F6D49814211DD6D498142D8BF17
:1056F0004FF0FF366DDD20462946FDF7C5FB042837
:1057000008BFFDF7E9FF20462946BDE8F88F654947
:10571000654F25F00045814233DD6449814219DD42
:10572000002632464FF0804320462946FAF733FEE2
:1057300080468A46012220462946FBF775F9002259
:105740003B46FAF7C9FE42465346FAF73DFF044688
:105750000D463EE001260022BA463B462046294639
:10576000FAF719FE80460F46002253462046294686
:10577000FAF7B2FE42463B46FAF726FF04460D46CC
:1057800027E04B4981421BDDDFF828A102260022D9
:10579000534620462946FAF7A5FE00223B46FAF773
:1057A000FAFD80460F460022534620462946FAF766
:1057B00093FE42463B46FAF707FF04460D4608E0D3
:1057C000032622462B4600203B49FAF7FDFE0446FD
:1057D0000D4622462B4610461946FAF783FE8B46A5
:1057E000824602460B46FAF77DFE074602463348DC
:1057F00088460B4606217844FDF7A4FE52465B46D8
:10580000FAF770FE82462E488B463A4643460521FB
:105810007844FDF797FE3A464346FAF763FE0246A0
:105820000B46002E504659460CDAFAF7B4FD2246D4
:105830002B46FAF757FE01B022462B46BDE8F04F43
:10584000FAF74DBEFAF7A7FD22462B46FAF74AFEB5
:105850001C4A7A4402EBC603D3E90023FAF73CFE64
:1058600022462B46FAF738FE174A7A4402EBC60363
:10587000D3E90023FAF733FE009A002AB8BF81F07B
:105880000041BDE8F88F0000000010440000F07FE8
:10589000182D4454FB21F93FFB21F9BF0000DC3FE8
:1058A0000000203E0000F33F0000F03F0000E63F14
:1058B000008003400000F83F0000F0BF9E3300006E
:1058C0005C330000FA320000C23200002DE9F04DD6
:1058D0009446CCF1000423F000464CEA0404594FEE
:1058E00046EAD4749A46884621F00042BC4206D863
:1058F000454240EA050442EAD474BC4204D9BDE8FA
:10590000F04D6246FDF7D9BEAAF14055A5F17F657D
:1059100055EA0C040BD0022404EAAA744A4DDFF8BD
:105920002CE144EAD87452EA000B04D00CE0BDE844
:10593000F04DFFF7BBBE002C14BF012CBDE8F08D6D
:10594000022C30D0032C32D056EA0C0B0AD0BE42C7
:1059500020D1BA4209D126F0804622F08042334657
:10596000114617E000291ADB25E0DFF8E4B0FB441C
:10597000002C04BFDBE90001BDE8F08D012C02BF63
:10598000DBE9000181F00041BDE8F08D022C0AD076
:10599000032C0CD0BA4212D1B8F1000F0BDA2A480E
:1059A0002C49BDE8F08D28462B49BDE8F08D2846EE
:1059B0007146BDE8F08D24482849BDE8F08D921B62
:1059C00012153C2AC4BF204F244E10DCBAF1000F40
:1059D000BEBF12F13C0F00273E4608DB6246FAF7D5
:1059E000F3FD21F00041FFF761FE07460E4694B13A
:1059F000012C08BF86F000460DD0194A194B022C25
:105A00003846314615D0FAF767FD2A46BDE8F04D15
:105A1000114BFAF761BD0022134638463146FAF7BA
:105A2000A1FE04BF0220FFF745F938463146BDE824
:105A3000F08DFAF751FD2A46BDE8F04D064BFAF716
:105A40004EBD00000000F07F182D4454FB2109C01A
:105A500056320000FB21F9BFFB210940FB21F93F31
:105A6000075C143326A6A13C70B5044622E02568E5
:105A7000A08900F4807020B9A06810B1A068FFF779
:105A8000F3FFA08900F4807028B9206918B10B4990
:105A9000206909688847A08900F4007028B9206A45
:105AA00018B10649206A09688847204603490968F1
:105AB00088472C46002CDAD170BD00005001002030
:105AC00070B505460E46AC6800E024682CB131463E
:105AD000206A00F04FF80028F7D1204670BD000082
