:020000040800F2
:10000000381700201904000805010008070100083E
:10001000130100081F0100082B0100080000000068
:100020000000000000000000000000003701000890
:1000300039010008000000002F0400083B010008FF
:100040003304000833040008330400083F010008AB
:1000500033040008330400083D010008330400089D
:100060003304000833040008330400083304000894
:100070003304000833040008330400083304000884
:100080003304000833040008330400083304000874
:100090003304000833040008330400083304000864
:1000A0003304000833040008330400083304000854
:1000B0003304000833040008330400083304000844
:1000C0003304000833040008330400083304000834
:1000D00033040008D7120008D95700083304000879
:1000E000330400083304000833040008DFF810D09C
:1000F00007F06AFF00480047A9320008AFF300800C
:100100003817002070470EA11C4801F0C0F800BF4E
:10011000FEE71BA1194801F0BAF800BFFEE727A1CE
:10012000164801F0B4F800BFFEE733A1134801F010
:10013000AEF800BFFEE770477047704770477047E2
:100140000D0A2A2A2A2A2A2A2A2A2A2A2A2A2A2A4C
:100150002A2A2A2A2A486172644661756C745F48AB
:10016000616E646C65722A2A2A2A2A2A2A2A2A2A75
:100170002A2A2A2A2A2A2A2A2A0D0A000038014075
:100180000D0A2A2A2A2A2A2A2A2A2A2A2A2A2A2A0C
:100190002A2A2A2A2A4D656D4D616E6167655F487E
:1001A000616E646C65722A2A2A2A2A2A2A2A2A2A35
:1001B0002A2A2A2A2A2A2A2A2A0D0A000D0A2A2A43
:1001C0002A2A2A2A2A2A2A2A2A2A2A2A2A2A2A2A8F
:1001D0002A4275734661756C745F48616E646C6524
:1001E000722A2A2A2A2A2A2A2A2A2A2A2A2A2A2A27
:1001F0002A2A2A2A0D0A00000D0A2A2A2A2A2A2A2D
:100200002A2A2A2A2A2A2A2A2A2A2A2A2A557361A3
:1002100067654661756C745F48616E646C65722ACF
:100220002A2A2A2A2A2A2A2A2A2A2A2A2A2A2A2A2E
:100230002A2A0D0A000000000CB500200190009051
:100240006C48006840F480306A49086000BF694823
:10025000006800F4003000900198401C0190009864
:1002600018B90198B0F5A06FF1D16248006800F4A8
:10027000003010B10120009001E0002000900098B3
:10028000012843D15C48006840F010005A490860DA
:100290000846006820F0030008600846006840F047
:1002A0000200086053484068524948600846406868
:1002B00048600846406840F48060486008464068EE
:1002C00020F47C1048600846406840F4E81048601C
:1002D0000846006840F08070086000BF454800682C
:1002E00000F000700028F9D04248406820F0030078
:1002F000404948600846406840F00200486000BF3E
:100300003C48406800F00C000828F9D10CBD10B53D
:10031000FFF792FF10BD10B53648006840F00100AD
:10032000344908600846406834490840314948600B
:1003300008460068324908402E49086008460068AF
:1003400020F4802008600846406820F4FE004860E1
:100350004FF41F008860FFF7DAFF4FF00060294973
:10036000086010BD10B5002100200022214B5B6801
:1003700003F00C0121B1042906D0082928D107E097
:10038000214B224C236027E01F4B204C236023E0AD
:10039000184B5B6803F47010164B5B6803F48032F3
:1003A000022303EB904022B9194B4343174C2360BF
:1003B0000DE0104B5B6803F4003323B1144B43434F
:1003C000124C236003E0104B4343104C236003E0C6
:1003D0000D4B0E4C236000BF00BF064B5B68C3F3A0
:1003E00003130C4CE15C094B1B68CB40074C2360AA
:1003F00010BD000000100240002002400000FFF885
:10040000FFFFF6FE08ED00E000127A000000002079
:1004100000093D00040000200648804706480047C8
:10042000FEE7FEE7FEE7FEE7FEE7FEE7FEE7FEE7A4
:10043000FEE7FEE717030008ED000008314901431D
:10044000314A1160704770B5002100230F22C47833
:1004500004B32D4C246804F4E064C4F5E064210A7C
:10046000C1F10403CA40447804FA03F184781440CB
:1004700021430901254C0678A155047804F01F0595
:100480000124AC4005786D11AD0005F1E025C5F8FB
:10049000004109E0047804F01F050124AC401C4D24
:1004A0000678761145F8264070BD1A4A0A40024384
:1004B000154B1B1F1A60704739B1134A121D126881
:1004C0000243114B1B1D1A6006E00F4A121D1268F1
:1004D00082430D4B1B1D1A607047042808D14FF052
:1004E000E021096941F004014FF0E022116107E0C9
:1004F0004FF0E021096921F004014FF0E022116181
:10050000704700000000FA050CED00E000E400E098
:1005100080E100E080FFFF1F10B50446CC48844214
:1005200008D10121042000F02DFB0021042000F05F
:1005300029FB46E0C748844208D10121082000F089
:1005400021FB0021082000F01DFB3AE0C248844254
:1005500008D10121102000F015FB0021102000F02F
:1005600011FB2EE0BD48844208D10121202000F07B
:1005700009FB0021202000F005FB22E0B84884425E
:1005800008D10121402000F0FDFA0021402000F0B8
:10059000F9FA16E0B348844208D10121802000F026
:1005A000F1FA0021802000F0EDFA0AE0AE48844222
:1005B00007D10121801500F0E5FA0021A01500F017
:1005C000E1FA10BD10B50121084600F0DBFA002168
:1005D000012000F0D7FA10BD2DE9F04102460025B8
:1005E0000026002000230024002791F803C00CF00F
:1005F0000F0591F803C00CF0100CBCF1000F03D0F4
:1006000091F802C04CEA050591F800C0BCF1000F5A
:1006100031D0146800202BE04FF0010C0CFA00F3ED
:10062000B1F800C00CEA03069E4220D183004FF0CF
:100630000F0C0CFA03F7BC4305FA03FC4CEA040464
:1006400091F803C0BCF1280F06D14FF0010C0CFA51
:1006500000FCC2F814C00AE091F803C0BCF1480FD6
:1006600005D14FF0010C0CFA00FCC2F810C0401C80
:100670000828D1D31460B1F800C0BCF1FF0F34DDFD
:10068000546800202EE000F1080C4FF0010808FA31
:100690000CF3B1F800C00CEA03069E4221D183009E
:1006A0004FF00F0C0CFA03F7BC4305FA03FC4CEABD
:1006B000040491F803C0BCF1280F05D100F1080C27
:1006C00008FA0CF8C2F8148091F803C0BCF1480F86
:1006D00007D100F1080C4FF0010808FA0CF8C2F835
:1006E0001080401C0828CED35460BDE8F0814FF63E
:1006F000FF710180022181700421C17070470246A0
:10070000002093680B400BB1012000E000207047EF
:100710000146886880B2704702460020D3680B40CB
:100720000BB1012000E0002070470146C86880B28C
:10073000704701617047416170470AB1016100E093
:1007400041617047C16070474FF480320A43826153
:100750008161826182698269704702460020434B51
:1007600018684FF68073184040EA021008433F4B68
:10077000186070473E49C8617047F0B50A460023CB
:1007800000240021002500F00046B6F1004F02D100
:10079000364EF16901E0354E7168C0F3034583B20E
:1007A00000F44016B6F5401F08D121F070612F4EBD
:1007B000766826F070662D4F7E6012E000F4801699
:1007C000B6F5801F06D1032606FA05F4A14341F0D1
:1007D000706106E0460D360103FA06F6B14341F0BA
:1007E000706122B1460D360103FA06F6314300F07E
:1007F0000046B6F1004F02D11C4EF16101E01B4EE4
:100800007160F0BD30B500228B071C0F0F2303FA77
:1008100004F2164B08338C1053F824309343134CD6
:1008200008348D1044F8253023468C1053F82430BA
:100830008C07240F00FA04F423430C4C08348D1069
:1008400044F8253030BD0A49DC31086070470000AB
:1008500000080140000C014000100140001401405C
:1008600000180140001C0140002001400000014030
:1008700000002042DF48006840F00100DD490860C8
:1008800008464068DC490840DA4948600846006884
:10089000DA490840D74908600846006820F48020FB
:1008A00008600846406820F4FE0048604FF41F00CE
:1008B00088607047CF49096821F48031CD4A1160C2
:1008C0001146096821F480211160B0F5803F03D002
:1008D000B0F5802F0ED106E0C649096841F4803199
:1008E000C44A116007E0C349096841F4A021C14A24
:1008F000116000E000BF00BF704710B50146002244
:10090000002300204A11012A02D1BA4C236806E0D4
:10091000022A02D1B74C236A01E0B64C636A01F0A7
:100920001F02012494401C400CB1012000E0002073
:1009300010BD38B5002000900024002500BF3120F4
:10094000FFF7DBFF05460098401C00900098B0F5CB
:10095000A06F01D0002DF2D03120FFF7CEFF08B1FB
:10096000012400E00024204638BD01460020A14AB1
:10097000106820F0F80040EAC10010607047A049FC
:1009800008607047024600209A4B586820F47C109B
:1009900042EA01031843974B58607047984908662C
:1009A000704701460020934A506820F00300084336
:1009B000506070478F48406800F00C007047014657
:1009C00000208C4A506820F0F000084350607047C7
:1009D00001460020874A506820F4E06008435060D8
:1009E000704701460020834A506820F4605040EA76
:1009F000C1005060704729B17E4A527A02437D4B54
:100A00005A7204E07B4A527A82437A4B5A72704798
:100A10007B49D8310860704701460020754A50680C
:100A200020F440400843506070470021714A203252
:100A30001170704A82F82010012802D004280AD1CF
:100A400004E001216B4A2032117005E00521694A5A
:100A50002032117000E000BF00BF70476949086094
:100A600070476449096A0143624A116270476549E7
:100A700044390860704730B500210022002400236B
:100A80005C4D6D6805F00C0121B1042905D00829E1
:100A900023D105E05C4D056022E05B4D05601FE061
:100AA000544D6D6805F47012524D6D6805F4803434
:100AB000022505EB92421CB9544D554305600BE0ED
:100AC0004C4D6D6805F400351DB1504D5543056022
:100AD00002E04D4D5543056002E04B4D056000BFFF
:100AE00000BF444D6D6805F0F0010909484D6B5C8D
:100AF0000568DD4045603F4D6D6805F4E061090A19
:100B0000434D6B5C4568DD4085603A4D6D6805F48A
:100B10006051C90A3E4D6B5C4568DD40C560354D8E
:100B20006D6805F44041890B3A4D6B5CC568B5FBB7
:100B3000F3F5056130BD29B12E4A526902432D4BB0
:100B40005A6104E02B4A526982432A4B5A6170472A
:100B500029B1284A92690243264B9A6104E0254A4A
:100B600092698243234B9A61704729B1214AD26925
:100B70000243204BDA6104E01E4AD26982431D4BD6
:100B8000DA61704729B11B4AD2680243194BDA6017
:100B900004E0184AD2688243164BDA60704729B1E4
:100BA000144A12690243134B1A6104E0114A126994
:100BB0008243104B1A6170471249403908607047F0
:100BC0000F49C86470470B49C87170470948406AAB
:100BD00040F0807007494862704701460020054A8E
:100BE00092680A400AB1012000E0002070470149E4
:100BF00088727047001002400000FFF8FFFFF6FE09
:100C0000000042428004424200127A0000093D0086
:100C1000140000202400002010B50446FB48844244
:100C200009D101218803FFF7ADFF00214FF4804077
:100C3000FFF7A8FF32E0F648844209D101214804B9
:100C4000FFF7ADFF00214FF40030FFF7A8FF25E0CC
:100C5000F048844209D101218804FFF7A0FF002158
:100C60004FF48020FFF79BFF18E0EB48844209D146
:100C70000121C804FFF793FF00214FF40020FFF784
:100C80008EFF0BE0E548844208D101210805FFF7FB
:100C900086FF00214FF48010FFF781FF10BD2DE982
:100CA000F04786B005460E460024A24600BFA14686
:100CB0000027B08900B100BF2F462C8A4CF6FF7088
:100CC0000440F08804432C82AC894EF6F3100440B3
:100CD000B08831890843718908430443AC81AC8AE8
:100CE0004FF6FF400440B0890443AC8201A8FFF7EF
:100CF000C2FEC648874202D1DDF810A001E0DDF84F
:100D00000CA0A88900F4004040B10AEBCA0000EB37
:100D10000A1031684900B0FBF1F807E00AEBCA009D
:100D200000EB0A1031688900B0FBF1F86420B8FBD1
:100D3000F0F004012009642101FB1089A88900F466
:100D4000004040B1322000EBC900B0FBF1F000F0F0
:100D50000700044308E0322000EB09106421B0FBD7
:100D6000F1F000F00F0004432C8106B0BDE8F087DD
:100D70004FF41651016000218180C18001810C2156
:100D8000418100218181704710B502460020108A00
:100D90004FF2FF0318400B884C8823438C88234371
:100DA000CC8823431843108210BD0021018041806C
:100DB0008180C180704721B1828942F400528281D2
:100DC00004E082894DF6FF731A4082817047F0B5C6
:100DD0000346002400260025002040F66A17B94289
:100DE00000D100BF1846C1F3421401F01F060127CD
:100DF00007FA06F5012C01D10C3004E0022C01D1D8
:100E0000103000E014301AB107682F43076002E089
:100E10000768AF430760F0BD1AB1838A0B43838232
:100E200002E0838A8B4383827047028A4FF6F07315
:100E30001A400282028A0A430282704782894FF274
:100E4000FF731A40828182890A438281704721B1EF
:100E5000828942F00202828104E082894FF6FD73AA
:100E60001A4082817047028A4FF6DF731A4002826D
:100E7000028A0A430282704721B1028A42F4804208
:100E8000028204E0028A4BF6FF731A400282704726
:100E9000C1F308028280704701468888C0F30800C9
:100EA0007047818941F0010181817047028BD2B284
:100EB0000283028B42EA012202837047028B02F412
:100EC0007F420283028B0A430283704721B1828AE8
:100ED00042F02002828204E0828A4FF6DF731A40D9
:100EE0008282704721B1828A42F01002828204E03D
:100EF000828A4FF6EF731A408282704721B1828A4C
:100F000042F00802828204E0828A4FF6F7731A40A8
:100F10008282704721B1828942F40042828103E0DB
:100F20008289C2F30E028281704721B1828A42F423
:100F30000062828204E0828A4FF2FF731A4082824A
:100F40007047828A4FF6FB731A408282828A0A4374
:100F50008282704721B1828A42F00202828204E0DA
:100F6000828A4FF6FD731A40828270470246002043
:100F7000B1F5007F00D100BF13880B400BB10120F9
:100F800000E00020704701F40072B2F5007F00D14C
:100F900000BFCA430280704770B502460024002398
:100FA0000025002040F66A16B14200D100BFC1F30F
:100FB000421501F01F03012606FA03F3012D02D1A9
:100FC0009689334006E0022D02D1168A334001E0B3
:100FD000968A33400C12012606FA04F4168834402F
:100FE00013B10CB1012000E0002070BD10B500224B
:100FF000002340F66A14A14200D100BF0A12012466
:101000009440A3B2DC43048010BD000000380140CE
:101010000044004000480040004C004000500040A8
:101020004FF0E020006920F004004FF0E02108615B
:101030000920364908700846007800EB4001C1EBF2
:10104000C0104FF6FF7101EAC000314908807047B7
:10105000002120F07F402D4A127842434FF0E023D8
:101060005A6100229A6101221A6100BF4FF0E0220A
:10107000116901F001021AB101F48032002AF5D0A1
:1010800000224FF0E0231A619A617047002100B9F5
:10109000704720F07F401E4A128842434FF0E02301
:1010A0005A6100229A6101221A6100BF4FF0E022CA
:1010B000116901F001021AB101F48032002AF5D061
:1010C00000224FF0E0231A619A6100BFE0E770B59B
:1010D0000446002600254FF4FA7094FBF0F0C6B2E7
:1010E0004FF4FA7094FBF0F100FB114085B205E07B
:1010F0004FF4FA70FFF7CAFF701EC6B2002EF7D188
:1011000015B12846FFF7C2FF70BD0000280000207F
:101110002A00002010B586B0044601210420FFF704
:1011200017FD01218803FFF713FD18208DF8170024
:101130004FF40070ADF8140003208DF8160005A9D7
:101140006B48FFF749FA04208DF817000002ADF84C
:10115000140003208DF8160005A96548FFF73CFA36
:1011600001940020ADF810000C20ADF80E00002016
:10117000ADF80C00ADF80A00ADF8080001A95D4813
:10118000FFF78DFD01215B48FFF715FE012240F2BC
:1011900025515848FFF71BFE25208DF8000001203F
:1011A0008DF8030000208DF8010002208DF8020068
:1011B0006846FFF748F906B010BD10B586B0044682
:1011C00001210420FFF7C4FC01214804FFF7CDFCF6
:1011D00018208DF817000420ADF8140003208DF8B6
:1011E000160005A94248FFF7F7F904208DF817000B
:1011F0000820ADF8140003208DF8160005A93C481E
:10120000FFF7EAF901940020ADF810000C20ADF8CA
:101210000E000020ADF80C00ADF80A00ADF8080093
:1012200001A93548FFF73BFD01213348FFF7C3FD16
:10123000012240F225513048FFF7C9FD26208DF8E4
:10124000000001208DF8030000208DF801008DF8CA
:1012500002006846FFF7F7F806B010BD2DE9F0412F
:1012600007460C46154600260DE014F8011B3846CB
:10127000FFF70EFE00BF40213846FFF777FE00283B
:10128000F9D0701C86B2AE42EFDBBDE8F0810FB43E
:1012900030B5CBB0054601AC50A800904FF4947126
:1012A00001A8009B4F9A07F0D3F8002000900BE0B4
:1012B00014F8011B2846FFF7EBFD00BF402128462C
:1012C000FFF754FE0028F9D020780028F0D14BB069
:1012D00030BC5DF814FB10B540F225510548FFF70E
:1012E0005BFE18B120210348FFF74DFE10BD000042
:1012F00000080140003801400044004070B5044639
:1013000025690CB1207B10B94FF0FF3070BD227AF7
:10131000A38899B22068FFF710FA0020287000BF58
:10132000F4E710B504460CB1207B10B94FF0FF3044
:1013300010BD206907F0FCFF00202061207300BF72
:10134000F6E710B504460CB1207B10B94FF0FF3022
:1013500010BD2046E169884718B12046A169884739
:1013600002E02046616988470020F1E701460A69EA
:1013700009B1087B10B94FF0FF3070471078FCE7D7
:1013800070B5044625690CB1207B10B94FF0FF30D1
:1013900070BD237A0BB9012300E000231A46A3880D
:1013A00099B22068FFF7C9F9012028700020EFE703
:1013B00038B5044614B94FF0FF3038BD012007F0AE
:1013C000DFFF2061206910B94FF0FF30F5E7256994
:1013D0002F492068884204D101210420FFF7B8FB7F
:1013E00034E02C492068884204D101210820FFF70D
:1013F000AFFB2BE028492068884204D1012110204E
:10140000FFF7A6FB22E025492068884204D101218C
:101410002020FFF79DFB19E021492068884204D174
:1014200001214020FFF794FB10E01E49206888420C
:1014300004D101218020FFF78BFB07E01A492068C7
:10144000884203D101218015FFF782FB10208DF81F
:10145000030003208DF80200A08880B2ADF80000E0
:1014600069462068FFF7B8F8104860611048A0612D
:101470001048E06110482062104860620020287027
:101480002046FFF73BFF01202073002095E7000076
:1014900000080140000C0140001001400014014010
:1014A00000180140001C0140002001408113000889
:1014B000FD1200086D1300084313000823130008F1
:1014C00070B504460D46207C10B94FF0FF3070BD5A
:1014D000A28991B22A46A068FFF72FF90020F6E70B
:1014E00070B504460D46207C10B94FF0FF3070BD3A
:1014F000A28891B22A462068FFF71FF90020F6E77C
:1015000010B5044614B94FF0FF3010BD002120463D
:10151000FFF7E6FF00212046FFF7D2FF012120461A
:10152000FFF7DEFF01212046FFF7CAFF0020ECE7AE
:1015300070B50446A28991B2A068FFF7E0F80546AD
:10154000284670BD70B5044601212046FFF7B8FF5C
:1015500001212046FFF7C4FF2046FFF7E9FF0546BB
:1015600000212046FFF7BCFF284670BD70B5054638
:101570000E4615B94FF0FF3070BD002410E08020FA
:10158000204100EA06012846FFF79AFF012128467C
:10159000FFF7A6FF00212846FFF7A2FF601CC4B298
:1015A000082CECDB0020E7E710B5044614B94FF037
:1015B000FF3010BD01212046FFF782FF01212046A8
:1015C000FFF78EFF00212046FFF77AFF002120461B
:1015D000FFF786FF0020ECE72DE9F04705460E46B1
:1015E00017469846DDF820900DB1287C18B94FF0C9
:1015F000FF30BDE8F0872846FFF7D6FF7006010EE2
:101600002846FFF7B3FF2846FFF79CFF39462846D8
:10161000FFF7ACFF2846FFF795FF002409E019F813
:1016200004102846FFF7A2FF2846FFF78BFF601C37
:10163000C4B24445F3DB2846FFF762FF0020D8E739
:101640002DE9F04104460D4616461F460CB1207C9C
:1016500018B94FF0FF30BDE8F0812046FFF7A4FF36
:101660006806010E2046FFF781FF2046FFF76AFF5C
:1016700031462046FFF77AFF2046FFF763FF3946E1
:101680002046FFF773FF2046FFF75CFF2046FFF779
:1016900037FF0020DFE770B504460D4614B94FF060
:1016A000FF3070BD29462046FFF70AFF0121204682
:1016B000FFF716FF00212046FFF712FF0020F0E79A
:1016C00070B50646002501213046FFF7F9FE0724D4
:1016D0000EE001213046FFF703FF3046FFF728FFF9
:1016E000A0402843C5B200213046FFF7F9FE641E32
:1016F000002CEEDA284670BD2DE9F04705460E466F
:1017000090461F46DDF820900DB1287C18B94FF0A7
:10171000FF30BDE8F0872846FFF746FF7006010E50
:101720002846FFF723FF2846FFF70CFF41462846CF
:10173000FFF71CFF2846FFF705FF2846FFF734FF99
:10174000012000EB4600C1B22846FFF70FFF2846F4
:10175000FFF7F8FE002410E02846FFF7B1FF09F874
:101760000400781EA04201D1012000E000200146C3
:101770002846FFF790FF601CC4B2BC42ECDB284651
:10178000FFF7BEFE0020C4E72DE9F04104460D46F8
:1017900016461F460CB1207C18B94FF0FF30BDE84B
:1017A000F0812046FFF700FF6806010E2046FFF794
:1017B000DDFE2046FFF7C6FE31462046FFF7D6FE87
:1017C0002046FFF7BFFE2046FFF7EEFE012000EBAC
:1017D0004500C1B22046FFF7C9FE2046FFF7B2FE22
:1017E0002046FFF76DFF387001212046FFF753FFB9
:1017F0002046FFF785FE0020D1E7014609B1087CAD
:1018000010B94FF0FF3070470020087400BFFAE7AE
:1018100038B5044614B94FF0FF3038BD5C49206834
:10182000884204D101210420FFF792F934E059499C
:101830002068884204D101210820FFF789F92BE0B4
:1018400055492068884204D101211020FFF780F912
:1018500022E052492068884204D101212020FFF76C
:1018600077F919E04E492068884204D101214020CF
:10187000FFF76EF910E04B492068884204D101213E
:101880008020FFF765F907E047492068884203D1C7
:1018900001218015FFF75CF93D49A068884204D119
:1018A00001210420FFF754F934E03A49A068884246
:1018B00004D101210820FFF74BF92BE03649A0683D
:1018C000884204D101211020FFF742F922E0334978
:1018D000A068884204D101212020FFF739F919E0DE
:1018E0002F49A068884204D101214020FFF730F938
:1018F00010E02C49A068884204D101218020FFF724
:1019000027F907E02849A068884203D10121801502
:10191000FFF71EF914208DF8030003208DF8020054
:10192000A08880B2ADF8000069462068FEF754FE3A
:1019300014208DF8030003208DF80200A08980B2E6
:10194000ADF800006946A068FEF746FE17486061E2
:101950001748A0611748E061174820621748606285
:101960001748A0621748E0631748E06217482063F1
:10197000174860631748A06301212046FFF7B0FDB8
:1019800001212046FFF79CFD01202074002044E740
:1019900000080140000C014000100140001401400B
:1019A00000180140001C014000200140A91500085A
:1019B000011500086D150008C116000897160008EB
:1019C00045150008FB17000889170008F9160008DC
:1019D00041160008D91500082DE9F04105460F46CB
:1019E00090466C690DB1287C18B94FF0FF30BDE806
:1019F000F08120466169884778212046E269904756
:101A00002046A16A884740212046E2699047204647
:101A1000A16A8847002608E0B95D2046E269904740
:101A20002046A16A8847701CC6B24645F4DB2046B2
:101A3000A16988470020DAE770B505460E466C6953
:101A40000DB1287C10B94FF0FF3070BD20466169A0
:101A5000884778212046E26990472046A16A884756
:101A600000212046E26990472046A16A8847314616
:101A70002046E26990472046A16A88472046A1692E
:101A800088470020E1E770B504460E4615460CB1C4
:101A9000207C10B94FF0FF3070BD46F0B0012046F9
:101AA000FFF7CAFF102040EA15112046FFF7C4FFD8
:101AB00005F00F012046FFF7BFFF0020ECE770B5EF
:101AC00005466E690DB1287C10B94FF0FF3070BD2E
:101AD000002411E0002221462846FFF7D4FF96F8A3
:101AE0004000FE4A02EB802000EBC4118022284611
:101AF000FFF772FF601CC4B2082CEBDB0020E6E7A6
:101B000070B501464C6909B1087C10B94FF0FF303F
:101B100070BD002210E000230AE0002094F840503D
:101B2000EE4E06EB852505EBC215E854581CC3B2F2
:101B3000802BF2DB501CC2B2082AECDB0020E7E766
:101B400070B504460CB1207C10B94FF0FF3070BD69
:101B500065692846E96B8847606907F0E9FB002062
:101B60006061207400BFF2E72DE9F04103460C46A6
:101B70005D690BB1187C18B94FF0FF30BDE8F081FA
:101B80007F2C02DD4FF0FF30F8E73F2A02DD4FF0F7
:101B9000FF30F3E71046D61702EB5676F61095F8AD
:101BA0004070DFF838C30CEB872707EBC616365DAD
:101BB0001146D71702EB5777FF10A2EBC70C01278E
:101BC00007FA0CF73E43D71702EB5777FF1095F84B
:101BD00040C0DFF8088308EB8C2C0CEBC7173E5590
:101BE0000020CBE72DE9FF4F87B08B46144699467E
:101BF000079805F068FF05460E46584605F063FF56
:101C000007462A46334607F057FAB54AB54BCDE9A1
:101C1000000105F0E0FE0022B34BCDE9020105F022
:101C200068FECDE9040105F06CFF0FFA80FA4C451F
:101C300007DAA2450BDBCA4509DC01200BB0BDE881
:101C4000F08FA24501DACA4501DC0120F6E7002049
:101C5000F4E72DE9F05F82460F4616469B46BAF13F
:101C6000000F02D09AF8100018B94FF0FF30BDE80D
:101C7000F09FCBF1010900255C4621462846DDE9AD
:101C80000A23FFF7AFFF30B13019C2B27819C1B2E1
:101C90005046FFF769FF604201B2684200B2DDE9D9
:101CA0000A23FFF79FFF30B1301BC2B2781BC1B2CD
:101CB0005046FFF759FF29462046DDE90A23FFF782
:101CC00091FF30B17019C2B23819C1B25046FFF756
:101CD0004BFF684201B2604200B2DDE90A23FFF720
:101CE00081FF30B1701BC2B2381BC1B25046FFF742
:101CF0003BFF0C98B8B160420FFA80F811E0414602
:101D00000020DDE90A23FFF76DFF30B106EB080084
:101D1000C2B239465046FFF727FF08F101000FFA1B
:101D200080F8A045EBDBE9E0681C05B2B9F1000FD3
:101D300005DA6800401C48440FFA80F907E0601E8D
:101D400004B2281B4000401C48440FFA80F9214689
:101D50002846DDE90A23FFF745FF30B13019C2B24A
:101D60007819C1B25046FFF7FFFE29462046DDE94B
:101D70000A23FFF737FF30B17019C2B23819C1B268
:101D80005046FFF7F1FE604201B2684200B2DDE961
:101D90000A23FFF727FF30B1301BC2B2781BC1B254
:101DA0005046FFF7E1FE684201B2604200B2DDE951
:101DB0000A23FFF717FF30B1701BC2B2381BC1B244
:101DC0005046FFF7D1FE604201B22846DDE90A2302
:101DD000FFF708FF30B1301BC2B27819C1B25046CC
:101DE000FFF7C2FE684201B22046DDE90A23FFF791
:101DF000F9FE30B1701BC2B23819C1B25046FFF7BC
:101E0000B3FE2146684200B2DDE90A23FFF7EAFE8D
:101E100030B13019C2B2781BC1B25046FFF7A4FEF0
:101E20002946604200B2DDE90A23FFF7DBFE30B14C
:101E30007019C2B2381BC1B25046FFF795FE0C981C
:101E400000285BD060420FFA80F822E04146284625
:101E5000DDE90A23FFF7C6FE38B106EB0800C2B27F
:101E60007819C1B25046FFF77FFE4146684200B282
:101E7000DDE90A23FFF7B6FE38B106EB0800C2B26F
:101E8000781BC1B25046FFF76FFE08F101000FFA50
:101E900080F8A045DADB68420FFA80F82CE0414672
:101EA000604200B2DDE90A23FFF79CFE38B106EB81
:101EB0000800C2B2381BC1B25046FFF755FE41467A
:101EC0002046DDE90A23FFF78DFE88B106EB080006
:101ED000C2B23819C1B2504608E00000F400002038
:101EE0001F85EB51B81E094000806640FFF73CFE9D
:101EF00008F101000FFA80F8A845D0DBA542FFF6F3
:101F000013AF0020B3E62DE9F04F97B083460F469C
:101F100016469A46DDF88090BBF1000F02D09BF880
:101F2000100020B94FF0FF3017B0BDE8F08F00254A
:101F30004C46C9F1000005F0C6FD0022FE4BCDE97C
:101F4000080105F02FFCCDE90C010AFB0AF005F0B1
:101F5000BAFDCDE90A01DDE90C2305F0CAFCCDE9A3
:101F6000100109FB09F005F0AEFDCDE90E01DDE938
:101F7000102305F017FCCDE9120105F03DFE159088
:101F80002198B8B160420FFA80F811E006EB080022
:101F9000C2B239465846FFF7E7FD06EB0800C2B269
:101FA00039465846FFF7E0FD08F101000FFA80F8C6
:101FB000A045EBDB3019C2B27819C1B25846FFF721
:101FC000D3FD301BC2B2781BC1B25846FFF7CCFD1F
:101FD0003019C2B2781BC1B25846FFF7C5FD301B9D
:101FE000C2B27819C1B25846FFF7BEFD61E00021C8
:101FF000159805F01DFE0DD809FB09F16A00D21CE9
:1020000001FB02F005F056FD1390159905F072FBE7
:10201000159014E009FB09F16A00D21C51430AFB38
:102020000AF26300C3F1020302FB031005F042FD54
:102030001390159905F05EFB1590601E04B2681CA4
:1020400005B22198C8B160420FFA80F813E006EBA0
:102050000800C2B27819C1B25846FFF785FD06EBF9
:102060000800C2B2781BC1B25846FFF77DFD08F1E7
:1020700001000FFA80F8A045E9DB3019C2B27819E7
:10208000C1B25846FFF770FD301BC2B2781BC1B217
:102090005846FFF769FD3019C2B2781BC1B25846E5
:1020A000FFF762FD301BC2B27819C1B25846FFF784
:1020B0005BFD204605F007FD00229F4BCDE90A019C
:1020C00005F011FCCDE90E010AFB0AF005F0FBFC5E
:1020D000CDE90C01DDE90E2305F00BFCCDE9120181
:1020E00009FB09F16A1C01FB02F005F0ECFCCDE9EB
:1020F0001001DDE9122305F04FFDFFF478AF0AFB74
:102100000AF101FB09F101FB09F005F0DCFCCDE966
:1021100010010AFB0AF1621E514301FB02F005F0B7
:10212000D2FCCDE90C01284605F0CDFC0022824B03
:10213000CDE9040105F036FBCDE90801284605F09C
:10214000C2FC00227C4BCDE9000105F02BFBCDE960
:10215000040109FB09F005F0B6FCCDE90201DDE957
:10216000042305F0C6FBCDE90601DDE9082305F0EF
:10217000C0FBCDE90A01DDE90C2305F013FBCDE935
:102180000E01DDE9102305F0AEFBCDE9120105F0EB
:1021900033FD149062E00021149805F049FD15D834
:1021A00009FB09F16A00921C51430AFB0AF2630021
:1021B000C3F1030302FB031005F07CFC1390149998
:1021C00005F098FA1490681C05B20DE00AFB0AF1BC
:1021D0006200C2F1030201FB02F005F06BFC1390F8
:1021E000149905F087FA1490601E04B22198C8B1C2
:1021F00060420FFA80F813E006EB0800C2B27819CB
:10220000C1B25846FFF7B0FC06EB0800C2B2781B1B
:10221000C1B25846FFF7A8FC08F101000FFA80F898
:10222000A045E9DB3019C2B27819C1B25846FFF7B0
:102230009BFC301BC2B2781BC1B25846FFF794FC1E
:102240003019C2B2781BC1B25846FFF78DFC301B63
:10225000C2B27819C1B25846FFF786FC002C9ADC4E
:10226000002061E62DE9F05F83460F461646994649
:10227000BBF1000F02D09BF8100018B94FF0FF30EF
:10228000BDE8F09FC9F1010A00254C463019C2B2E1
:102290007819C1B25846FFF767FC301BC2B2781BF1
:1022A000C1B25846FFF760FC7019C2B23819C1B20A
:1022B0005846FFF759FC701BC2B2381BC1B25846D2
:1022C000FFF752FC0A9880B160420FFA80F80AE0EA
:1022D00006EB0800C2B239465846FFF745FC08F144
:1022E00001000FFA80F8A045F2DB83E0681C05B21C
:1022F000BAF1000F05DA6800401C50440FFA80FA6A
:1023000007E0601E04B2281B4000401C50440FFA36
:1023100080FA3019C2B27819C1B25846FFF724FCCE
:102320007019C2B23819C1B25846FFF71DFC301BF4
:10233000C2B2781BC1B201E00000E03F5846FFF78F
:1023400013FC701BC2B2381BC1B25846FFF70CFC1D
:10235000301BC2B27819C1B25846FFF705FC701B9A
:10236000C2B23819C1B25846FFF7FEFB3019C2B2EB
:10237000781BC1B25846FFF7F7FB7019C2B2381B81
:10238000C1B25846FFF7F0FB0A9898B360420FFAC3
:1023900080F813E006EB0800C2B27819C1B25846C3
:1023A000FFF7E2FB06EB0800C2B2781BC1B2584649
:1023B000FFF7DAFB08F101000FFA80F8A045E9DB2E
:1023C00068420FFA80F813E006EB0800C2B2381B2F
:1023D000C1B25846FFF7C8FB06EB0800C2B2381975
:1023E000C1B25846FFF7C0FB08F101000FFA80F8B0
:1023F000A845E9DBA542FFF679AF002040E72DE9CB
:10240000F04305460C461F46079E4FF0000C002186
:102410006B1E34E032F91100B04201DD012000E012
:10242000002032F91380B04502DD4FF0010801E0D1
:102430004FF0000840451FD034F9130034F91180E3
:10244000A0EB080032F91180A6EB080800FB08F0A9
:1024500032F9138032F91190A8EB090890FBF8F0DB
:1024600034F911804044B84206DDBCF1000F01D1BF
:10247000012000E0002084460B46481C01B2A9421E
:10248000C8DB0CF0FF00BDE8F0832DE9FF4F87B0FB
:102490000F4616469846DDF85090079810B10798F9
:1024A000007C20B94FF0FF300BB0BDE8F08F4FF04B
:1024B000000B002001904E4511D1474503DDBA467F
:1024C00047460AF0FF083C4606E0E1B2324607986C
:1024D000FFF74AFB601C04B24445F6DDAAE047451D
:1024E00011D14E4503DDB2464E460AF0FF0935468E
:1024F00006E0EAB239460798FFF736FB681C05B2DA
:102500004D45F6DD96E0474507DDBA4647460AF0F9
:10251000FF08B2464E460AF0FF094E4507DD7042FD
:10252000C6B2C9F1000000F0FF094FF0010BA9EBA2
:102530000600A8EB0701884209DDBA4637460AF0D3
:10254000FF06C246C8460AF0FF0901200190A8EB29
:1025500007000690A9EB060005900598400000B220
:102560000390DDE90501401A400000B20290059891
:1025700041000698081A00B204903C463546BBF16B
:10258000000F08D0019830B16042C2B2E9B207989A
:10259000FFF7EAFA16E0BBF1000F06D06842C2B2BC
:1025A000E1B20798FFF7E0FA0CE0019828B1E2B237
:1025B000E9B20798FFF7D8FA04E0EAB2E1B2079867
:1025C000FFF7D2FA34E0601C04B20498002805DA60
:1025D000DDE90310084400B2049006E0681C05B26F
:1025E00002990498084400B20490BBF1000F08D08F
:1025F000019830B16042C2B2E9B20798FFF7B4FA6D
:1026000016E0BBF1000F06D06842C2B2E1B20798F3
:10261000FFF7AAFA0CE0019828B1E2B2E9B20798F4
:10262000FFF7A2FA04E0EAB2E1B20798FFF79CFADA
:102630004445C8DB002037E72DE9FF4F87B01C4633
:10264000DDE91576149D079810B10798007C20B934
:102650004FF0FF300BB0BDE8F08FDDF82080DDF8E3
:102660002490DDF82080C246DDF82490CB46DDF8CA
:102670002080ADF80C80ADF80E40ADF81070DDF89C
:102680002490ADF80490ADF80650ADF808601798A6
:1026900098B92346009507A807C8FFF7F6FE3B4602
:1026A000009607A807C8FFF7F0FE3B462A462146DA
:1026B00000960798FFF7E9FE39E0444500DAA046A6
:1026C000474500DAB8464D4500DAA9464E4500DADE
:1026D000B146544500DDA246574500DDBA465D458A
:1026E00000DDAB465E4500DDB346CDF818801BE04B
:1026F000CDF8149011E00598009001AA03A90320D9
:10270000069BFFF77CFE20B1DDE905210798FFF766
:102710002BFA0598401CC0B2059005985845EADD93
:102720000698401CC0B2069006985045E0DD002097
:1027300090E72DE9F05F80460D4616461F46DDE91D
:102740000A9BB8F1000F02D098F8100018B94FF0AA
:10275000FF30BDE8F09FBBF1000F28D12C460EE002
:10276000324621464046FFF7FFF906EB0900401EBE
:10277000C2B221464046FFF7F7F9601CC4B2E8191F
:10278000A042EDDC34460DE0224629464046FFF7E4
:10279000EBF9E819401EC1B222464046FFF7E4F9C2
:1027A000601CC4B206EB0900A042EDDC15E02C462B
:1027B00010E0B24608E0524621464046FFF7D4F901
:1027C0000AF1010000F0FF0A06EB09005045F2DCB7
:1027D000601CC4B2E819A042EBDC0020B9E7F0B5F8
:1027E00003465D697F2901DD0020F0BD3F2A01DD40
:1027F0000020FAE7D61702EB5676F61095F84070EF
:10280000DFF88CC60CEB872707EBC616765CD7176C
:1028100002EB5777FF10A2EBC70C012707FA0CF762
:102820003E400EB10120E0E70020DEE72DE9F04F49
:1028300005460C461F46DDF824C0D5F814800DB1BE
:10284000287C18B94FF0FF30BDE8F08F7F2C02DDF7
:102850004FF0FF30F8E73F2A02DD4FF0FF30F3E79B
:10286000E019802802DDC4F18000C7B202EB0C0041
:10287000402803DDC2F1400000F0FF0C114638E0B3
:10288000264631E008464FEAE17901EB59794FEAF3
:10289000E90998F840A0DFF8F8B50BEB8A2A0AEBB3
:1028A000C91919F806900B464FEAE17A01EB5A7AFA
:1028B0004FEAEA0AA1EBCA0B4FF0010A0AFA0BFA37
:1028C00029EA0A094FEAE17A01EB5A7A4FEAEA0A61
:1028D00098F840B0DFF8B8E50EEB8B2B0BEBCA1A7B
:1028E0000AF80690701CC6B2E019B042CADC481C57
:1028F000C1B202EB0C008842C2DC0020A4E72DE943
:10290000F84F80460F4614469946DDF828B0D8F8AF
:1029100014A0B8F1000F02D098F8100018B94FF0C9
:10292000FF30BDE8F88F7F2F02DD4FF0FF30F8E772
:102930003F2C02DD4FF0FF30F3E74B46224639468D
:102940004046CDF800B0FFF771FF002589E0002672
:1029500081E0B8197F2800DD80E0E11704EB5171B8
:1029600005EBE101072902DD4FF0FF30D9E72046F2
:10297000E21704EB527205EBE2029AF84030DFF8FE
:1029800010C50CEB832303EBC212BB19D25C2146AA
:10299000E31704EB5373DB10A4EBC30305FB096ED1
:1029A000DDF82CC01CF80EC00CFA03FC42EA0C0245
:1029B000E31704EB537305EBE3039AF840C0DFF829
:1029C000D0E40EEB8C2C0CEBC31307EB060C03F8D6
:1029D0000C20E11704EB517105EBE101491C0729BB
:1029E00000DD36E02046E21704EB527205EBE2020E
:1029F000521C9AF84030DFF898C40CEB832303EBA9
:102A0000C212BB19D25C2146E31704EB5373DB10EF
:102A1000A4EBC303C3F1080305FB096EDDF82CC06A
:102A20001CF80EC04CFA03FC42EA0C02E31704EB5C
:102A3000537305EBE3035B1C9AF840C0DFF850E4E6
:102A40000EEB8C2C0CEBC31307EB060C03F80C20DD
:102A500000BF701CC6B24E45FFF67BAF00BF681CBE
:102A6000C5B2ABF10100C11700EB5171012202EBBD
:102A7000E101A9423FF76BAF002052E72DE9FC418D
:102A800004460F4690461D46089E0CB1207C18B99E
:102A90004FF0FF30BDE8FC81082E0ED1A5F12000DB
:102AA000FC4901EB0010102108234246CDE900103B
:102AB00039462046FFF723FF11E0062E0FD1A5F17E
:102AC000200000EB4000F44901EB40000821062300
:102AD0004246CDE9001039462046FFF710FF00209E
:102AE000D8E72DE9F84305460F4691461E46DDF826
:102AF00020800DB1287C18B94FF0FF30BDE8F88375
:102B000000240BE0CDF80080335D04FB0870C1B2F7
:102B10004A462846FFF7B2FF601CC4B2305D002869
:102B2000F0D100BFEAE7F0B58BB004460E46174679
:102B30001D460CB1207C18B94FF0FF300BB0F0BD32
:102B400011A8029003A8029A109905F09BFC00209E
:102B5000029003AB3A46314620460095FFF7C1FF8D
:102B60000020EBE72DE9FE4F07468946924698463E
:102B70000FB1387C18B94FF0FF30BDE8FE8F00254B
:102B80000020029000243BE018F8040002A94855F8
:102B9000681CC5B2032D31DB002500260BE006EBD7
:102BA000C601BE4A02EB810002A904F036FC00B95E
:102BB0000BE0701CC6B206EBC601B84A02EB8100FE
:102BC000B7A104F02AFC0028E9D100BF601C032152
:102BD00090FBF1F0401E09EB001000F0FF0B06EB3C
:102BE000C600AE4901EB8000001D10210B46524685
:102BF000CDE9001059463846FFF781FE601CC4B28B
:102C000018F804000028BFD100BFB6E710B502468F
:102C1000012000E050430B1EA1F10101FAD110BDCB
:102C20002DE9F84F05460E4692461F46DDE90A8912
:102C30000DB1287C18B94FF0FF30BDE8F88F0024A3
:102C40001AE0A8EB0400411E0A20FFF7DFFFB7FBE4
:102C5000F0F00A21B0FBF1F201FB120000F1300BA1
:102C600004FB0960C1B25B4652462846CDF800908D
:102C7000FFF704FF601CC4B24445E2DB0020DCE740
:102C80002DE9FF4F87B080460F46DDE91569149D99
:102C9000189CB8F1000F02D098F8100020B94FF03E
:102CA000FF300BB0BDE8F08F0022134628463146B6
:102CB00004F08AFF07D82B23009439464046099A2E
:102CC000FFF7DCFE08E02D23009439464046099AC0
:102CD000FFF7D4FE86F000462846314604F030FF68
:102CE0008346584604F000FF2A463346CDE90401E6
:102CF00004F0FCFD05460E460A201799FFF786FFF3
:102D00008246504604F0F0FE2A463346CDE90001E3
:102D100004F0EFFDCDE9020107F054F8CDE904011C
:102D200004F00EFF06900698B0FBFAF083443819C1
:102D3000C1B25B46CDE900944046099AFFF770FFA7
:102D400009F1010000FB0470C1B22E23009440463B
:102D5000099AFFF793FE1798CDE9000409F10200E4
:102D600000FB0470C1B24046069B099AFFF758FF6A
:102D7000002096E72DE9F84F05460E4692461F467D
:102D8000DDE90A890DB1287C18B94FF0FF30BDE8A4
:102D9000F88F002417E0A8EB0400411E0220FFF783
:102DA00035FFB7FBF0F000F0010000F1300B04FB41
:102DB0000960C1B25B4652462846CDF80090FFF745
:102DC0005DFE601CC4B24445E5DB0020DFE72DE971
:102DD000F84F0746884693469946DDE90AA50FB1A4
:102DE000387C18B94FF0FF30BDE8F88F002424E09C
:102DF000AAEB0400411E1020FFF708FFB9FBF0F01A
:102E000000F00F060A2E0BDA06F13000C3B204FB05
:102E10000580C1B25A4638460095FFF72FFE0AE0FA
:102E200006F13700C3B204FB0580C1B25A463846EA
:102E30000095FFF723FE601CC4B25445D8DB002088
:102E4000D2E72DE9FF4F81B0074689461D46DDE9EF
:102E50000EA60FB1387C20B94FF0FF3005B0BDE8A9
:102E6000F08F002D08DB2B23009649463846039A45
:102E7000FFF704FEA84608E02D2300964946384691
:102E8000039AFFF7FBFDC5F10008002425E00000D0
:102E9000F4000020A49E000894A40008CEA6000818
:102EA00000000000AAEB0400411E0A20FFF7AEFE5E
:102EB000B8FBF0F00A21B0FBF1F201FB120000F1C7
:102EC000300B601C00FB0690C1B25B460096384692
:102ED000039AFFF7D3FD601CC4B25445E2DB002027
:102EE000BCE72DE9F04F05460C461F46DDF824C02F
:102EF000D5F814800DB1287C18B94FF0FF30BDE82B
:102F0000F08F7F2C02DD4FF0FF30F8E73F2A02DD23
:102F10004FF0FF30F3E7E019802802DDC4F18000B4
:102F2000C7B202EB0C00402803DDC2F1400000F004
:102F3000FF0C114638E0264631E008464FEAE179B9
:102F400001EB59794FEAE90998F840A0DFF8ECB2B3
:102F50000BEB8A2A0AEBC91919F806900B464FEABF
:102F6000E17A01EB5A7A4FEAEA0AA1EBCA0B4FF079
:102F7000010A0AFA0BFA89EA0A094FEAE17A01EB37
:102F80005A7A4FEAEA0A98F840B0DFF8B0E20EEB5E
:102F90008B2B0BEBCA1A0AF80690701CC6B2E0190C
:102FA000B042CADC481CC1B202EB0C008842C2DC51
:102FB0000020A4E770B5024654690AB1107C10B92C
:102FC0004FF0FF3070BD002119E0002313E094F8AA
:102FD00040009A4D05EB802000EBC110C05C80F0F2
:102FE000FF0094F84050954E06EB852505EBC11582
:102FF000E854581CC3B2802BE9DB481CC1B2082935
:10300000E3DB0020DEE72DE9F04707460D461446D6
:103010009846DDF82090D7F814A00FB1387C18B985
:103020004FF0FF30BDE8F0877F2D02DD4FF0FF301D
:10303000F8E73F2C02DD4FF0FF30F3E705EB080027
:10304000802803DDC5F1800000F0FF0804EB0900D3
:10305000402803DDC4F1400000F0FF092046E117DD
:1030600004EB5171C1F3C70612E02A4631463846D7
:10307000FEF709FD9AF84000704A02EB802000EB51
:10308000C610411942463846FEF7A6FC701CC6B26F
:1030900004EB0901481EC11700EB5171012202EB3C
:1030A000E101B142E1DC0020BCE770B5044614B98F
:1030B0004FF0FF3070BD002006E0002100E0491C09
:1030C000B1F57A7FFBD3401CB0F57A7FF5D344206D
:1030D00006F056F96061606910B94FF0FF30E9E71A
:1030E00065692068286060686860A068A860E0681A
:1030F000E8605348007885F8400051480078401C4B
:103100004F4908702846FEF783FB4E48A0614E48A1
:10311000E0614E4820624E4860624E48A0624E48D0
:10312000E0624E4820634E4860634E48A0634E48BC
:10313000E0634E4820644E4860644E48A0644E48A8
:10314000E0644E4820654E4860654E48A0654E4894
:10315000E0654E4820664E4860664E48A0664E4880
:10316000E0664E4820674E4860674E48A0670120E1
:103170002074AE212046FEF75FFCD5212046FEF7E5
:103180005BFC80212046FEF757FCA8212046FEF775
:1031900053FC3F212046FEF74FFCD3212046FEF78B
:1031A0004BFC00212046FEF747FC40212046FEF75D
:1031B00043FCA1212046FEF73FFCC8212046FEF734
:1031C0003BFCDA212046FEF737FC12212046FEF7B1
:1031D00033FC81212046FEF72FFCCF212046FEF74D
:1031E0002BFCD9212046FEF727FCF1212046FEF7D3
:1031F00023FCDB212046FEF71FFC30212046FEF792
:103200001BFCA4212046FEF717FCA6212046FEF752
:1032100013FC8D212046FEF70FFC14212046FEF7FB
:103220000BFCAF212046FEF707FC2046FEF768FCAA
:103230002046FEF744FC00203CE70000F40000209C
:103240002C000020BF1A000807300008011B0008EE
:103250002D280008B52F0008E32E0008FF280008DD
:103260007D2A0008E32A0008212C0008432E0008CC
:10327000CF2D0008752D0008812C0008652B000853
:10328000272B0008691B0008DF2700088B24000893
:10329000332700083926000865220008071F0008A8
:1032A000531C0008411B000808B5002500244FF4FA
:1032B000A060FDF7C3F8FDF7B3FE4FF4E130FDF772
:1032C00029FF4FF4E130FDF778FF4448FEF770F82E
:1032D0004348FFF7EAFE43A14848FDF7D8FF062020
:1032E00000903F4846A30A220021866BB0473C4825
:1032F0008169884747A14148FDF7C9FF02F028FAD4
:1033000049A13E48FDF7C3FF0620009034484BA377
:1033100014220021866BB0473148816988474BA150
:103320003648FDF7B4FF03E04FF4FA70FDF7AEFE48
:103330004DA14FA002F0ADF90028F5D158A12F48BA
:10334000FDF7A5FF0620009025485DA31E22002161
:10335000866BB0472248816988475DA12748FDF701
:1033600096FF07E040A142A002F093F94FF4FA70F3
:10337000FDF78CFE00F053FA0028F3D15BA11F4843
:10338000FDF785FF0620009015485FA32822002145
:10339000866BB04712488169884700F027FD0F48C7
:1033A0004169884719E0681C80B20546B0F5FA7F8C
:1033B00008DB5BA11148FDF76AFF00F0A9FC0025BE
:1033C00002F048F9002002F0A1F9044614B12046A9
:1033D00000F037FD0A20FDF759FEE4E73000002039
:1033E00058000020200D0A486172647761726520E0
:1033F000696E6974204F4B0D0A00000000380140CF
:10340000486172647761726520696E6974204F4B00
:10341000000000000D0A4553503832363620696EE0
:1034200069742E2E2E0D0A00455350383236362040
:10343000696E6974204F4B0D0A00000045535038E7
:1034400032363620696E6974204F4B000D0A436F87
:103450006E6E656374204D515454732053657276BB
:1034600065722E2E2E0D0A00434F4E4E45435400DA
:1034700041542B43495053544152543D22544350DC
:10348000222C226D717474732E6865636C6F756481
:10349000732E636F6D222C313838330D0A00000013
:1034A000436F6E6E656374204D51545420536572A2
:1034B00076657220537563636573730D0A000000AF
:1034C0004D51545420636F6E6E656374204F4B00F2
:1034D0000D0A4F6E654E455420646576696365201C
:1034E0006C6F67696E2E2E2E0D0A00004F6E654EB2
:1034F000455420646576696365206C6F67696E204A
:103500004F4B0D0A000000004F6E654E455420647D
:103510006576696365206C6F67696E204F4B0000AC
:103520004F6E654E65745F53656E64446174610DE2
:103530000A000000F0B58BB005460026002428469E
:1035400003F064FFC7B20DB11C2F02DA01200BB0EB
:10355000F0BD06E0A85D01A988550020A855701CA3
:10356000C6B2BE42F6DB002001A988550026002421
:1035700055E001A8805D2B2810D008DC202814D04D
:1035800023282ED0252825D026283FD130E02F28EB
:1035900012D03D2833D03F2838D114E02819FCA19F
:1035A00003F00CFFE01CC4B236E02819F9A103F0C7
:1035B00005FFE01CC4B22FE02819F7A103F0FEFEBE
:1035C000E01CC4B228E02819F4A103F0F7FEE01CC7
:1035D000C4B221E02819F2A103F0F0FEE01CC4B24D
:1035E0001AE02819EFA103F0E9FEE01CC4B213E0D1
:1035F0002819EDA103F0E2FEE01CC4B20CE028198A
:10360000EAA103F0DBFEE01CC4B205E001A8805D86
:103610002855601CC4B200BF00BF701CC6B2BE42B9
:10362000A7DB0020285500BF91E72DE9F04FC9B076
:1036300005460C4616461F460DF5A47898E8000F7F
:103640000020489055B14CB1D948864206D32FB1DD
:10365000B9F1000F02D0BAF1780F03DA012049B0B6
:10366000BDE8F08F402118A803F09DFE384603F016
:10367000CDFE05903B4648AA4021009018A801F0D5
:103680002DF8482106A803F08EFEBBF1000F09D0EB
:10369000C8A03346C9A248218DE8310006A804F02D
:1036A000A9FE09E0C3A03346CAA248218DE8110152
:1036B000039506A804F09EFE402128A803F073FE9F
:1036C00006A803F0A3FE059018A803F09FFE04903F
:1036D00028A8009006AA18A8DDE9041300F0B8FE97
:1036E00000204890402138A803F05DFE28A803F090
:1036F0008DFE059028AB48AA4021009038A800F024
:103700004DFF38A8FFF716FFBBF1000F0CD038A80B
:10371000A8A12B46B7A2CDE90046CDE9021051463B
:10372000484604F067FE0CE038A8A2A12B46BF4A29
:10373000CDE901860094CDE903105146484604F0D6
:1037400059FE00208BE72DE9F041ACB0012712258E
:103750000026002405F1F00005F012FE06461EB911
:1037600038462CB0BDE8F08103E04FF4FA70FDF765
:103770008DFCAFA1B0A001F08CFF0028F5D1012095
:10378000902108AA0023CDE90032CDE90210B4A3AC
:10379000BF4AC0A1C2A0FFF748FFC4A11220CDE9D3
:1037A000000105F1F00108ABC24A304604F022FEE8
:1037B000304603F02BFE1FFA80F84146304601F0F8
:1037C0008EFFFA2001F0A2FF044624B1BAA12046E0
:1037D00003F000FE0446CCB100200390B94803A9D1
:1037E00004ABB94ACDE90010B849204603F050FEB9
:1037F00004280AD1B348039904ABB34ACDE90010B9
:10380000B3A1BB48FDF743FD002700BF304605F0DC
:103810008FFDB8A1B8A001F03CFF3846A1E730B554
:10382000B3B000202F903090319032900125A0212C
:1038300007AA9EA3CDE90032CDE9021088A3944ADD
:1038400094A197A0FFF7F1FE07A892A397A2AEA1BB
:103850000090A748FDF71BFD2FA8002102910391BE
:10386000CDE90410084601210B0290A2CDE9001019
:1038700007A988A001F093F8002842D1309A91B2AC
:103880002F9801F02CFFFA2001F040FF0446002C95
:1038900033D0204601F04EF802282ED1204601F008
:1038A000E3F9062823D2DFE800F003090E13181D00
:1038B000A1A18F48FDF7EBFC00251DE0A6A18C48D7
:1038C000FDF7E5FC18E0AFA18948FDF7E0FC13E047
:1038D000B8A18748FDF7DBFC0EE0C0A18448FDF7E6
:1038E000D6FC09E0CBA18248FDF7D1FC04E0D9A1C8
:1038F0007F48FDF7CCFC00BF00BF2FA800F0D2FF2F
:1039000003E0DEA17A48FDF7C2FC284633B030BDA3
:1039100010B5C0B004464FF48071684603F043FD13
:10392000DFA1204603F09BFD4FF48071684603F051
:103930003AFD2322E0A1684604F076FD6946204660
:1039400003F03CFD4FF48071684603F02CFD2D22FE
:10395000E0A1684604F068FD6946204603F02EFDAC
:103960004FF48071684603F01EFDE1A2E2A16846B3
:1039700004F05AFD6946204603F020FDE3A12046ED
:1039800003F01CFD204603F041FDC0B240B010BD65
:1039900025324200253230002532460025334600CC
:1039A00025323500253233002532360025334400D8
:1039B0009554415D736861310000000025640A255B
:1039C000730A70726F64756374732F25730A25739D
:1039D0000000000025640A25730A70726F64756325
:1039E00074732F25732F646576696365732F257350
:1039F0000A25730076657273696F6E3D25732672B2
:103A000065733D70726F6475637473252532462546
:103A1000732665743D2564266D6574686F643D2565
:103A200073267369676E3D25730000006CAA000859
:103A3000434F4E4E4543540041542B434950535439
:103A40004152543D22544350222C223138332E32DD
:103A500033302E34302E3333222C38300D0A000010
:103A600030525046793648465832467667776C7001
:103A70006E3145784F7A6C374C6166587636334CE8
:103A80007A515039373250486E51383D00000000AD
:103A900000CF9D743139423567306951314E000095
:103AA000323031382D31302D333100006465766984
:103AB00063653100B4AA00086465766963655F696F
:103AC0006400000004050020F404002020AA00087F
:103AD000637265617465206465766963653A202563
:103AE000732C2025732C2025642C2025730D0A00AF
:103AF000003801404F4B000041542B434950434C88
:103B00004F53450D0A0000004F6E654E45545F440B
:103B100065764C696E6B0D0A4E414D453A20257312
:103B20002C0950524F49443A2025732C094B4559D2
:103B30003A25730D0A000000546970733A20436FF0
:103B40006E6E656374696F6E2073756363657373FE
:103B500066756C0D0A0000005741524E3A20436FC3
:103B60006E6E656374696F6E206661696C65643A38
:103B70002050726F746F636F6C206572726F720D7C
:103B80000A0000005741524E3A20436F6E6E656343
:103B900074696F6E206661696C65643A20496E765F
:103BA000616C696420636C69656E742049440D0A18
:103BB000000000005741524E3A20436F6E6E65631D
:103BC00074696F6E206661696C65643A2053657232
:103BD000766572206572726F720D0A005741524EFF
:103BE0003A20436F6E6E656374696F6E206661691B
:103BF0006C65643A20496E76616C69642075736502
:103C0000726E616D65206F722070617373776F7271
:103C1000640D0A005741524E3A20436F6E6E656341
:103C200074696F6E206661696C65643A20556E61D7
:103C30007574686F72697A65642028652E672E2C0A
:103C400020696E76616C696420746F6B656E290DF6
:103C50000A0000004552523A20436F6E6E6563744D
:103C6000696F6E206661696C65643A20556E6B6E93
:103C70006F776E206572726F720D0A005741524E57
:103C80003A094D5154545F5061636B6574436F6ED4
:103C90006E656374204661696C65640D0A000000FE
:103CA0007B226964223A22313233222C22706172E3
:103CB000616D73223A7B00002274656D70657261DC
:103CC00074757265223A7B2276616C7565223A259D
:103CD000647D2C002268756D6964697479223A7B71
:103CE0002276616C7565223A25647D2C0000000007
:103CF0007472756500000000226C6564223A7B22B4
:103D000076616C7565223A25737D00007D7D00002B
:103D100030B5C5B0002041904290439044900024BB
:103D200000259BA1A248FDF7B2FA4FF4807101A8CB
:103D300003F039FB01A8FFF7EBFD0446002C28D067
:103D400041A800232246AFF29C210090AFF2BC2094
:103D500001F07BF8C8B908E001A8415D429A501C07
:103D6000429041988154681C05B2A542F4DB429A06
:103D700091B2419801F0B3FC8EA18D48429AFDF7B3
:103D800086FA41A800F08EFD03E08EA18848FDF779
:103D90007EFA45B030BD70B588B005460C460020AF
:103DA000049005900690079023462A468DA18048EE
:103DB000FDF76DFA204603F029FB064604A8012111
:103DC000002200923346CDE9012103902246294684
:103DD0000A2000F058FF38B9059A91B2049801F012
:103DE0007EFC04A800F05EFD08B070BD00B597B081
:103DF0000020139014901590169003A80290AFF233
:103E00005430AFF270337FA24021009003A804F039
:103E1000F1FA03AA83A16648FDF739FA13A8012332
:103E200002AA00210090142001F019F938B9149A5F
:103E300091B2139801F053FC13A800F033FD17B0B2
:103E400000BD2DE9F04FA7B08046002026902590B8
:103E500024902390229000260027814682464046E7
:103E600000F068FD0646032E04D0042E61D0092E12
:103E700077D167E0714822A923AA26ABCDE90021BA
:103E8000029024AA25A9404601F021FA0746002FF6
:103E90004ED10025BDF88C002699CDE90010BDF863
:103EA000903067A14248259AFDF7F1F9269802F073
:103EB0007FFB834671A1584602F080FF219071A1DB
:103EC000219802F07BFF04464CB1E068012803D141
:103ED0006D484169884702E06B48816988475846C8
:103EE00001F064FD69A1259803F074FA0546F5B167
:103EF0002F21284603F080FA05466D1C242229460E
:103F000003A803F037FA00208DF8300003A8AFF2C1
:103F10006441AFF2804360A2CDE9001050210DA8AA
:103F200004F068FA63A10DA8FFF735FF00BF00BFDA
:103F300000BF404601F0CBFA18B960A11C48FDF75C
:103F4000A6F911E0404601F009F928B963A1184823
:103F5000FDF79DF904E004E067A11548FDF797F926
:103F600002E04FF0FF3700BF00BF01F073FB781C89
:103F700010B927B0BDE8F08F0F2E01D0032E05D168
:103F8000259805F0D5F9269805F0D2F900BFF0E79D
:103F9000546970733A094F6E654E65745F53656E70
:103FA00064446174612D4D5154540D0A00000000A9
:103FB0000038014053656E642025642042797465A1
:103FC000730D0A005741524E3A094544505F4E6501
:103FD00077427566666572204661696C65640D0A94
:103FE000000000005075626C69736820546F70693E
:103FF000633A2025732C204D73673A2025730D0AF0
:1040000000000000247379732F25732F25732F74FC
:1040100068696E672F70726F70657274792F73653F
:104020007400000053756273637269626520546F97
:104030007069633A2025730D0A000000D400002047
:10404000746F7069633A2025732C20746F706963F4
:104050005F6C656E3A2025642C207061796C6F610D
:10406000643A2025732C207061796C6F61645F6CF9
:10407000656E3A2025640D0A0000000070617261CF
:104080006D7300006C65640030000020726571750E
:104090006573742F00000000247379732F25732F2C
:1040A00025732F636D642F726573706F6E73652F48
:1040B000257300006F6A626B000000005469707322
:1040C0003A094D515454205075626C6973682053FD
:1040D000656E64204F4B0D0A000000005469707338
:1040E0003A094D5154542053756273637269626585
:1040F000204F4B0D0A000000546970733A094D516E
:1041000054542053756273637269626520457272FC
:104110000D0A0000F0B50446142C06DA01EA020587
:1041200023EA010685EA060019E0282C04DA81EA70
:10413000020787EA030012E03C2C0ADA01EA0205D2
:1041400001EA030787EA050602EA030787EA060091
:1041500005E0502C03DA81EA020787EA0300F0BD8C
:104160000146142901DAF7480AE0282901DAF6485D
:1041700006E03C2901DAF54802E0502900DAF4486B
:104180007047F0B5024601209040441EE54301EA25
:10419000050020FA02F601EA0400C2F1200C00FA40
:1041A0000CF746EA07031846F0BDF0B50246C2F127
:1041B000200C012000FA0CF0441EE54301EA040043
:1041C00000FA02F601EA0500C2F1200C20FA0CF711
:1041D00046EA07031846F0BD2DE9F04FDDB007466B
:1041E0008A4615460AF1080909F101094FEACA0091
:1041F0005B9048464FEAE97109EB91618E114846A0
:104200004FEAE97109EB91618911A9EB81115C9188
:104210005C98002800DD761C5C98C0F14000814469
:10422000D04604E0002007F8080008F10108B8EBC8
:10423000861FF7DB802007F80A000121C1EB8611F9
:104240005B9878545B98C0F307200221C1EB86117C
:1042500078545B98C0F307400321C1EB8611785472
:104260005B98000E0421C1EB86117854B948569032
:10427000B9485790B748C0435890B748C043599081
:10428000B6485A904FF00008A5E0002452E0102CE8
:1042900032D24FEA881000EB8400385C000601A996
:1042A00041F824004FEA881000EB8400401C385C81
:1042B00051F824104FF4803202FB001001A941F89C
:1042C00024004FEA881000EB8400801C385C51F811
:1042D0002410121202FB001001A941F824004FEA39
:1042E000881000EB8400C01C385C51F8241008448E
:1042F00001A941F824001CE0502C1AD2E01E01AAAA
:1043000052F82000A4F1080201AB53F822205040DB
:10431000A4F10E0253F822205040A4F1100253F8E9
:10432000222080EA02010120FFF73FFF01A941F8A6
:104330002400641C502CAAD356985590579854903A
:1043400058985390599852905A98519000242AE0C6
:1043500005205599FFF729FF83462046529B539A23
:104360005499FFF7D7FE584400905199009808449B
:1043700000902046FFF7F4FE00990844009001A841
:1043800050F8241000980844009052985190539887
:1043900052901E205499FFF708FF5390559854905F
:1043A00000985590641C502CD2D3569955980844C7
:1043B00056905799549808445790589953980844E0
:1043C000589059995298084459905A9951980844CC
:1043D0005A9008F10108B045FFF657AF5698E870BB
:1043E0005698000AA8705698000C68705698000EEF
:1043F00028705798E8715798000AA8715798000CD0
:1044000068715798000E28715898E8725898000AF9
:10441000A8725898000C68725898000E2872599823
:10442000E8735998000AA8735998000C6873599852
:10443000000E28735A98E8745A98000AA8745A987B
:10444000000C68745A98000E28745DB0BDE8F08FB7
:104450002DE9F04FADF5B36D07460E4692469846EE
:10446000DDF8BC9540254FF0360B5C20CDF8940567
:10447000002404E000200DF254510855641C402C27
:10448000F8DBAE421DD0AE420FDD4A46314638461B
:10449000FFF7A2FE002405E019F804000DF25451C4
:1044A0000855641C142CF7DB14E0AE4212DA002429
:1044B00004E0385D0DF254510855641CB442F8DB39
:1044C00008E0002404E0385D0DF254510855641CE6
:1044D000AC42F8DB002408E00DF25450005D80EAA5
:1044E0000B000DF214510855641C402CF4DB002421
:1044F00005E00DF21450005D15A90855641C402C10
:10450000F7DB002406E01AF8041015AA04F14000B5
:104510001154641C4445F6DB08EB05014A4615A816
:10452000FFF75AFE002409E00DF25450005DDDF85B
:10453000941548400DF2D4410855641C402CF3DB1F
:10454000002413E09979825AA1EBD96EDCBC1B8F51
:10455000D6C162CA0123456789ABCDEFF0E1D2C372
:104560000DF2D440005D0DF80400641C402CF7DB14
:10457000002406E019F8041004F140000DF80010C2
:10458000641C142CF6DB4A4605F114016846FFF75B
:1045900023FE0DF5B36DBDE8F08F00002DE9F04F5F
:1045A00007468946099C00250026AC46A846AA462F
:1045B00000211CB900201060BDE8F08F0320B4FB7F
:1045C000F0F04FF0030BB4FBFBFE0BFB1E4BBBF1FB
:1045D000000F02D04FF0010B01E04FF0000B00EB99
:1045E0000B06B6F1804F05D34FF0FF3010606FF02F
:1045F0002900E1E7B600701C814500D327B9701C83
:1046000010606FF02900D7E70320B4FBF0F000EB57
:1046100040060025394629E013F801CB13F8018B39
:1046200013F801AB87484FEA9C0B10F80B0001F818
:10463000010B4FEA0C1000EB281000F03F00DFF8F0
:1046400004B21BF8000001F8010B4FEA880000EBF0
:10465000AA1000F03F001BF8000001F8010B0AF05F
:104660003F001BF8000001F8010BED1CB542D3D34D
:10467000A5422DD213F801CB681CA04202D213F838
:10468000010B00E0002080466E48CCF3850B10F84B
:104690000B0001F8010B4FEA0C1000EB281000F0A2
:1046A0003F00DFF8A0B11BF8000001F8010B681C07
:1046B000A04207D23F2000EA88001BF8000001F862
:1046C000010B02E03D2001F8010B3D2001F8010B38
:1046D000C81B10600020087000BF6DE72DE9F0478F
:1046E000074689469046DDF820C0002100220024BC
:1046F00000260025002004460246014645E000262B
:1047000001E0491C761C614502D2585C2028F8D093
:10471000614500D13BE0ACEB0100022807D3585CB7
:104720000D2804D1481C185C0A2800D12CE0585CE4
:104730000A2800D128E01EB16FF02B00BDE8F087F9
:10474000585C3D2806D1601C0446022802D96FF04F
:104750002B00F3E7585C7F2806DC585CDFF8E8A004
:104760001AF800007F2802D16FF02B00E6E7585CB2
:10477000DFF8D4A01AF80000402803DA14B16FF073
:104780002B00DBE7521C00BF491C6145B7D300BFBB
:104790001AB90020C8F80000D0E7D00800EB4000AC
:1047A0004FEA400A02F0070000EB40004000C01D45
:1047B0000AEBD002121B0FB1914504D2C8F80020B9
:1047C0006FF02900BAE703240020064602463D4662
:1047D00031E018780D2805D018780A2802D018780A
:1047E000202800D125E01878DFF85CA01AF8000036
:1047F000402801D1012000E00020241A1878DFF8B9
:1048000048A01AF8000066F39F100646501C0246A6
:1048100004280DD1002214B1300C05F8010B012C35
:1048200002D9300A05F8010B022C01D905F8016BF9
:1048300000BF491E5B1C0029CBD1E81BC8F8000053
:1048400000207BE7EAA700082AA8000870B5044604
:104850000E460025206898B901202073304604F0E8
:104860008FFD20602068E0B100206060A66003E05A
:104870000020216848556D1CA068A842F8D810E0B7
:104880000220207303E00020216848556D1CA068B9
:10489000A842F8D800206060A068B04201D2002091
:1048A000206070BD10B50446207B012802D120682D
:1048B00004F03EFD002020606060A060207310BD09
:1048C0000246002301230DE002F07F000870D209A8
:1048D0002AB1087840F080000870491C01E01846B1
:1048E00070475B1C042BEFDD4FF0FF30F8E7F0B5AD
:1048F00004460D462646012300201060002114E0E6
:10490000775C07F07F07106807FB03001060705C9E
:1049100000F0800008B9481CF0BDDB01B3F5001FB2
:1049200002D36FF00100F7E7491CA942E8DB4FF022
:10493000FF30F1E7F8B50446FF2720780511012D77
:1049400001DB0E2D01DD3846F8BD032D24D10020FA
:1049500000906A460421601CFFF7C9FF2044461CF2
:104960000098022803D3207800F0010008B1FF204E
:10497000EAE77078317840EA0120801C009988428B
:1049800001D9FF20E0E7F8A1B01C02F023FD08B137
:104990000F2700E0032700E02F463846D4E72DE933
:1049A000FF4F83B082468B469146159C0025002020
:1049B00002900F270190484602F028FD0FFA80F878
:1049C000B9F1000F03D1012007B0BDE8F08F08F165
:1049D0000200384487B2109808B145F002051298D9
:1049E00078B145F00405129802F010FDC0B20290B3
:1049F000139802F00BFD01460298001D084438444C
:104A000087B2119820B1012804D0022808D104E00F
:104A100000BF07E045F00C0504E045F0140501E097
:104A20000220D1E700BF149808B145F02405BAF17F
:104A3000000F02D0BBF1000F01D10320C4E745F005
:104A4000C005504602F0E2FC0646584602F0DEFC85
:104A50003044001D384487B239462046FFF7F6FE41
:104A6000206808B90420AFE73946206802F09BFCB3
:104A700010216268501C606020688154D4E90023D2
:104A8000D118781FFFF71CFF00B201900198002891
:104A900004DA2046FFF706FF052095E761680198D4
:104AA0000844606000216268501C60602068815486
:104AB00004216268501C6060206881544D21626846
:104AC000501C60602068815451216268501C6060F5
:104AD0002068815454216268501C606020688154B1
:104AE0006268501C60602068815404216268501C18
:104AF0006060206881546168481C6060206845548B
:104B00000698010A6268501C60602068815406980B
:104B1000C1B26268501C606020688154C8F30721EC
:104B20006268501C6060206881546268501C60603C
:104B3000206800F80280D4E90012881842464946ED
:104B400002F079FC60684044606005F00400B8B38E
:104B50000026139808B986A01390129802F056FC0C
:104B600086B2310A6268501C6060206881546268B5
:104B7000501C606020688654D4E9001288183246C0
:104B8000129902F058FC606830446060139802F09B
:104B90003DFC86B2310A6268501C60602068815416
:104BA0006268501C606020688654D4E9001288183E
:104BB0003246139902F03FFC60683044606000BFE9
:104BC00005F08000C8B1504602F020FC86B2310AE0
:104BD0006268501C6060206881546268501C60608C
:104BE00020688654D4E9001288183246514602F0F3
:104BF00022FC60683044606000BF05F04000C8B12E
:104C0000584602F003FC86B2310A6268501C6060AC
:104C1000206881546268501C606020688654D4E922
:104C2000001288183246594602F005FC606830448C
:104C3000606000BF0020C7E610B504460221204690
:104C4000FFF704FE206808B9012010BDE02162686A
:104C5000501C60602068815400216268501C6060B4
:104C6000206881540020F0E701464878022801D0EE
:104C700001207047887810B18878012801D1C87860
:104C8000F7E7FF20F5E72DE9FF4F83B0834617468E
:104C90009946139C00250026002002900190804632
:104CA000BBF1000F03D1012007B0BDE8F08F002653
:104CB0000AE00498805D232803D00498805D2B28A7
:104CC00001D10220F0E7761C0498805D0028F0D125
:104CD00048F03008119808B148F0010806EB0900C7
:104CE000851C109820B1012804D002280AD105E0C3
:104CF00000BF09E048F00208AD1C05E048F00408D8
:104D0000AD1C01E00320CFE700BF67B3387802286D
:104D100021D14FF0000A00BF50460AF1010A385C69
:104D20007D28F9D1AAF1030A0AF10700029002983E
:104D3000A9EB000AE81CA0EB0A012046FFF786FD5C
:104D4000206808B90420AFE7EA1CA2EB0A0120683A
:104D500002F029FB1FE0691D2046FFF777FD206860
:104D600040B90420A0E70AE02463726571000000E6
:104D700000000000691D206802F015FB0BE0691DB2
:104D80002046FFF763FD206808B904208CE7691D01
:104D9000206802F008FB6168481C6060206800F829
:104DA0000180D4E9000281182846FFF789FD0190AF
:104DB0000198002804DA2046FFF774FD052073E708
:104DC0006168019808446060C6F307216268501C5E
:104DD0006060206881546268501C6060206886545E
:104DE000D4E9001288183246049902F024FB606866
:104DF00030446060109860B14FEA1B216268501C1B
:104E00006060206881546268501C6060206800F80F
:104E100002B0C7B1387802280BD1D4E90012881843
:104E20003946029A02F0A6FA616802980844606066
:104E300009E0D4E9001288184A46394602F09AFA85
:104E400060684844606000202EE72DE9F04190B092
:104E500004460D4616469846169F2346F7A2302173
:104E600004A8009503F0C6FA01200021CDE9000155
:104E700033460A4604A9CDE902070A20FFF703FFDB
:104E800018B1012010B0BDE8F0810020FAE72DE94B
:104E9000F04F85B080460D469146012004900027D2
:104EA000002600244FF0000A404602F0AFFA00F15D
:104EB0000D0B584604F064FA07461FB9049805B074
:104EC000BDE8F08F4246E5A1384603F0ADFA38461A
:104ED00002F09CFAC6B2F01D00EB050AAAEB050031
:104EE00004F04EFA044624B9384604F021FA049836
:104EF000E5E70220207000206070A6703246394637
:104F0000E01C02F037FA290EF01C2154C5F30741CA
:104F1000301D2154C5F30721701D2154B01D2554A7
:104F200001200021CDE9000153462246CFA1CDE961
:104F300002090A20FFF7A7FE08B9002004903846AE
:104F400004F0F6F9204604F0F3F90498B7E72DE9E8
:104F5000F84380460C4615461E462F2108F10600F0
:104F600002F04AFA07460020009017B90120BDE878
:104F7000F8837F1C6A46042108F10100FFF7B7FCA3
:104F8000252004F0FDF92060206808B90220EEE732
:104F90002521206802F007FA24223946206802F011
:104FA000E9F9243700982C3830803188481C04F007
:104FB000E7F92860286820B9206804F0B9F90320CF
:104FC000D5E73288511C286802F0EDF9328839465D
:104FD000286802F0CFF90020C9E72DE9FF5F0746F6
:104FE0000D469046384602F011FA86B2284602F085
:104FF0000DFA1FFA80FA4FF00009F01D04F0C0F915
:1050000004461CB9012004B0BDE8F09FF11D204604
:1050100002F0C9F996A0016821608088A08032461C
:105020003946204602F007FA284602F0EFF9834697
:105030000120002100915B462A46CDE9020801913A
:1050400021460A20FFF71FFE10B94FF0000901E0CA
:105050004FF00109204604F06BF94846D3E72DE9EB
:10506000FF5F8046174699460E9C0026B246B3461F
:105070000025B8F1000F03D1012004B0BDE8F09F76
:105080000BE057F8250008B90220F6E757F825008D
:1050900002F0BCF90644681CC5B24D45F1DB09EBD2
:1050A0004900801C00EB060A0AF105012046FFF7C3
:1050B000CDFB206808B90320DFE782216268501C1D
:1050C000606020688154D4E9000281185046FFF7DF
:1050D000F7FB0FFA80FBBBF1000F04DA2046FFF765
:1050E000E1FB0420C9E76068584460604FEA18217A
:1050F0006268501C6060206881546268501C606067
:10510000206800F80280002524E057F8250002F00E
:105110007DF90646C6F307216268501C606020686E
:1051200081546268501C606020688654D4E9002372
:10513000D01857F82510324602F07DF960683044E7
:1051400060600198C1B26268501C60602068815440
:10515000681CC5B24D45D8DB00208EE70146FF2014
:105160008A78A2B9CA78142A11D10A7932B1012AEF
:1051700005D0022A04D0802A06D103E000BF00BF78
:10518000002003E0012001E0022000BF00BF7047C3
:105190002DE9F05F80460F4691461C460026B24638
:1051A000B3460025B8F1000F02D10120BDE8F09F01
:1051B0000BE057F8250008B90220F7E757F825005B
:1051C00002F024F90644681CC5B24D45F1DB02200B
:1051D00000EB490000EB060A0AF105012046FFF743
:1051E00035FB206808B90320E0E7A2216268501C63
:1051F000606020688154D4E9000281185046FFF7AE
:105200005FFB0FFA80FBBBF1000F04DA2046FFF7CB
:1052100049FB0420CAE76068584460604FEA1821DF
:105220006268501C6060206881546268501C606035
:10523000206800F8028000253CE0000024737973A8
:105240002F25732F25732F7468696E672F70726F07
:1052500070657274792F706F737400007B226473B1
:105260005F6964223A222573227D00002464700065
:1052700024637273702F000057F8250002F0C6F8FF
:105280000646C6F307216268501C6060206881549E
:105290006268501C606020688654D4E90023D018EE
:1052A00057F82510324602F0C6F860683044606056
:1052B000681CC5B24D45DFDB002077E701460120C1
:1052C0008A781AB9CA781E2A00D1002070472DE9C1
:1052D000FC5F81460D4614461E46DDE90C8B99F8AD
:1052E000000000F00F0A002001900AF00800009072
:1052F000CAF341008BF8000001AA042109F1010062
:10530000FFF7F5FA4844471C0198022802D30AF037
:10531000010010B1FF20BDE8FC9F7878397840EAA1
:10532000012020802088801C0199884201D9FF201B
:10533000F1E7AFF2CC51B81C02F04CF808B10F20E5
:10534000E9E79BF8000020B101283DD0022877D181
:105350003BE0009808B1FF20DDE72188481C04F0FD
:105360000FF82860286808B9FF20D4E72288511C6C
:10537000286802F018F82288B91C286801F0FAFFA2
:105380000198801E2188401AA8F80000B8F8001083
:10539000481C03F0F5FF3060306820B9286803F03E
:1053A000C7FFFF20B7E7B8F80020511C306801F0B4
:1053B000FAFFB8F80020B4F800C0BB1C0CEB0301E6
:1053C000306801F0D7FF4FE000BF2088801C0199B2
:1053D000884201D9FF209EE72088C01C395C2088C4
:1053E000801C385C41EA00210E9801800E9808B9B3
:1053F000FF2090E72188481C03F0C2FF286028683E
:1054000008B9FF2087E72288511C286801F0CBFFEC
:105410002288B91C286801F0ADFF0198001F21887F
:10542000401AA8F80000B8F80010481C03F0A8FFC4
:105430003060306828B9286803F07AFFFF206AE7F7
:1054400010E0B8F80020511C306801F0ACFFB8F84B
:105450000020B4F800C03B1D0CEB0301306801F0E4
:1054600089FF01E0FF2056E700BF2B21284601F00D
:10547000C3FF20B92321284601F0BEFF08B1FF2059
:1054800049E7002047E770B505460C460421204651
:10549000FFF7DCF9206808B9012070BD402162687F
:1054A000501C60602068815402216268501C60605A
:1054B0002068815429126268501C60602068815401
:1054C0006268501C6060206885540020E5E7014652
:1054D0004878022801D001207047887820B9C87820
:1054E0000A2801D10020F7E70120F5E770B505464D
:1054F0000C4604212046FFF7A9F9206808B90120CD
:1055000070BD50216268501C606020688154022187
:105510006268501C60602068815429126268501CC7
:105520006060206881546268501C60602068855407
:105530000020E5E701464878022801D001207047A5
:10554000887820B9C8780A2801D10020F7E701201F
:10555000F5E770B505460C4604212046FFF776F9BD
:10556000206808B9012070BD62216268501C60602B
:105570002068815402216268501C60602068815458
:1055800029126268501C6060206881546268501C57
:105590006060206885540020E5E7024650780228C4
:1055A00001D0012070479078B0EB112F05D1D07851
:1055B000CBB2984201D10020F4E70120F2E770B5A8
:1055C00005460C4604212046FFF740F9206808B93B
:1055D000012070BD70216268501C60602068815499
:1055E00002216268501C6060206881542912626840
:1055F000501C6060206881546268501C60602068A4
:1056000085540020E5E701464878022801D00120B2
:105610007047887820B9C8780A2801D10020F7E7B8
:105620000120F5E710B5044602212046FFF70EF9E8
:10563000206808B9012010BDC0216268501C60605C
:105640002068815400216268501C60602068815489
:105650000020F0E710B54FF400716F4801F0A3FE91
:1056600000206E49088010BD6C48008808B90120F0
:1056700070476A4800886A490988884203D1002037
:1056800066490880F4E7654800886549088001207C
:10569000EEE72DE9F04104460D46C826204601F00C
:1056A000B5FE87B23A4621465E48FBF7D7FD0FE0CC
:1056B000FFF7DAFF48B92946574801F08BFE20B1C1
:1056C000FFF7C8FF0020BDE8F0810A20FBF7DEFCF1
:1056D000301EA6F10101CEB2EAD10120F3E730B5C8
:1056E00089B004460D46FFF7B5FF2A464EA101A832
:1056F00002F09AFE50A101A8FFF7CBFF20B92A467D
:1057000021464848FBF7AAFD09B030BD70B50546F3
:10571000002400BFFFF7A8FF80B948A13E4801F070
:1057200059FE044654B13A21204601F065FE044674
:1057300014B1641C204670BD0020FCE70520FBF777
:10574000A5FC281EA5F101018DB2E3D100BFF2E74F
:1057500010B5FFF77FFF3BA13C48FBF798FD03E046
:105760004FF4FA70FBF792FC39A13AA0FFF791FFD2
:105770000028F5D139A13548FBF789FD03E04FF446
:10578000FA70FBF783FC32A137A0FFF782FF0028F5
:10579000F5D139A12D48FBF77AFD03E04FF4FA70FB
:1057A000FBF774FC2AA138A0FFF773FF0028F5D19E
:1057B00039A12648FBF76BFD03E04FF4FA70FBF7C5
:1057C00065FC38A139A0FFF764FF0028F5D140A19E
:1057D0001E48FBF75CFD10BD10B540F22551114885
:1057E000FBF7DAFBB8B10D480088B0F5007F02D3B3
:1057F00000200A4908800B48001D0088C1B20748F4
:1058000002880088401C054B1880034881542021E1
:105810000448FBF7B8FB10BD34050020D60000207B
:10582000D80000200044004041542B4349505345C8
:105830004E443D25640D0A003E0000004950442CB2
:1058400000000000312E2041540D0A0000380140B4
:105850004F4B000041540D0A00000000322E20433F
:10586000574D4F44450D0A0041542B43574D4F446B
:10587000453D310D0A000000332E2041542B435783
:10588000444843500D0A000041542B4357444843B9
:10589000503D312C310D0A00342E2043574A4150DF
:1058A0000D0A0000474F54204950000041542B433B
:1058B000574A41503D2273686F756A69222C2274E1
:1058C000687864313536333639220D0A000000001D
:1058D000352E204553503832363620496E697420B3
:1058E0004F4B0D0A00000000FE480068704770B57D
:1058F00004460D462CB9AC4201D0012070BD0020F9
:10590000FCE70DB90120F9E705E0207808B900208F
:10591000F4E7641C6D1C207801F026FD064628780B
:1059200001F022FD8642F0D0207801F01DFD0646F0
:10593000287801F019FD301AE0E770B504462046DA
:1059400001F064FD451C2846E74909688847061EA2
:1059500000D170BD2A462146304601F00BFD30468D
:10596000F7E730B9E149E04A1160E149E14A1160E5
:105970007047016809B1016800E0DC49DA4A11604A
:10598000416809B1416800E0D949DA4A116000BFB5
:10599000EEE710B52820D4490968884704461CB1B1
:1059A0002821204601F0FFFC204610BD70B50446BA
:1059B00022E02568A08900F4807020B9A06810B1A9
:1059C000A068FFF7F3FFA08900F4807028B9206970
:1059D00018B1C849206909688847A08900F4007097
:1059E00028B9206A18B1C349206A09688847204647
:1059F000C049096888472C46002CDAD170BD2DE9D2
:105A0000F04F8BB083468A460020044605460026A8
:105A1000B94F0021884689460990012008909AF8DC
:105A200000002D2802D1B54F0AF1010A9AF80000B2
:105A3000302801D10AF1010A9AF80000312822DB4E
:105A40009AF8000039281EDC00BF1AF8011BA1F1EA
:105A5000300002F038F80022A94BCDE906012046BB
:105A6000294601F046FFCDE90401DDE9062301F0F6
:105A700099FE04460D469AF80000302803DB9AF898
:105A800000003928E1DD9AF800002E2830D19AF87C
:105A9000010030282CDB9AF80100392828DC0AF1B3
:105AA000010A00BF1AF8011BA1F1300002F00BF847
:105AB0000022934BCDE906012046294601F019FF4B
:105AC000CDE90401DDE9062301F06CFE04460D4634
:105AD0000022894B4046494601F005FF8046894631
